:0A0046000001020203030404050593
:10033900E4F508C203C200D202C201F516F509129A
:10034900135C7E107F008E0C8F0D751410751512BD
:10035900750A10750B1C75121075136275171075D7
:1003690018A890E680E030E70E850A0E850B0F8508
:100379001210851311800C85120E85130F850A1032
:10038900850B11850F82850E83A37402F085118276
:10039900851083A37407F0EE54E070030204B67568
:1003A9002900752A807E107F008E2B8F2CC374F450
:1003B9009FFF74109ECF2402CF3400FEE48F288E55
:1003C90027F526F525F524F523F522F521AF28AEE5
:1003D90027AD26AC25AB24AA23A922A821C312083C
:1003E900D65026E52A2524F582E5293523F5837497
:1003F900CDF0E5242401F524E43523F523E4352261
:10040900F522E43521F52180C4E4F524F523F5220C
:10041900F521AF28AE27AD26AC25AB24AA23A92206
:10042900A821C31208D65033E52C2524F582E52BE3
:100439003523F583E0FFE52A2524F582E5293523CF
:10044900F583EFF0E5242401F524E43523F523E4CD
:100459003522F522E43521F52180B785290C852A35
:100469000D74002480FF741034FFFEC3E5159FF559
:1004790015E5149EF514C3E50F9FF50FE50E9EF5DE
:100489000EC3E5119FF511E5109EF510C3E50B9F0D
:10049900F50BE50A9EF50AC3E5139FF513E5129ED0
:1004A900F512C3E5189FF518E5179EF51790E67044
:1004B9007440F075B23FE4F580A3F075B4FE75A001
:1004C900C0A3F075B63F43B10F75B5FFF5B0D2E8DB
:1004D90043D82090E668E04408F0E054FEF0E05488
:1004E900FDF090E65CE0443DF090E65EE0448AF081
:1004F900D2EAD2AF5391BF90E680E020E105D20461
:10050900121BE290E680E054F7F0538EF8C20375AF
:100519001B011210F6E49030C0F0120A6B5389FBEC
:100529005389FD438901538EF7438810D2A9E50801
:100539006003020339300105120056C20130032954
:100549001200505024C20312000E20001690E682B9
:10055900E030E704E020E1EF90E682E030E604E0F5
:1005690020E0E4121C40120FFE1216D9E5096013AF
:100579009030007401F0600BE4F5099030C3E0FF9E
:100589001205CF9030C0E0602AE4F09030C5E0B4A5
:10059900010A120E9C9030C3EFF080179030C5E02D
:1005A900B402109030C6E0FEA3E0FF9030BFE0FD3A
:1005B90012194790E680E030E70643B00402053798
:0605C90053B0FB020537F0
:1000560090E6B9E0245070030202C224B0B40C004A
:100066004003020325900072F8282873020121023A
:10007600019C02028C0202210202AD02032502004B
:100086009602032502011B02011502010902010F56
:10009600121E72400302033190E6BBE024FE602884
:1000A60014603F24FD601414602B24067052E50C86
:1000B60090E6B3F0E50DA3F0020331E51490E6B344
:1000C600F0E515A3F0020331E50E90E6B3F0E50F77
:1000D600A3F0020331E51090E6B3F0E511A3F002B8
:1000E600033190E6BAE0FF121C6CAA06A9077B0151
:1000F600EA494B600BEE90E6B3F0EFA3F002033152
:1001060002032A121E4A0203311214F402033112A8
:100116000003020331121E38020331121E7440031B
:1001260002033190E6B8E0247F60151460192402BA
:100136007061A200E43325E0FFA202E4334F804160
:10014600E490E740F0803F90E6BCE0547EFF7E00FE
:10015600E0D394807C0040047D0180027D00EC4E5B
:10016600FEED4F2446F58274003EF583E493FF339B
:1001760095E0FEEF24A1FFEE34E68F82F583E0548E
:100186000190E740F0E4A3F090E68AF0A37402F051
:1001960002033102032A121E76400302033190E65F
:1001A600B8E024FE60162402600302033190E6BA2A
:1001B600E0B40105C20002033102032A90E6BAE068
:1001C600705690E6BCE0547EFF7E00E0D394807CBF
:1001D6000040047D0180027D00EC4EFEED4F24467A
:1001E600F58274003EF583E493FF3395E0FEEF2439
:1001F600A1FFEE34E68F82F583E054FEF090E6BC74
:10020600E05480131313541FFFE0540F2F90E6831E
:10021600F0E04420F002033102032A121E78400364
:1002260002033190E6B8E024FE6021240260030256
:10023600033190E6BAE0B40105D20002033190E63C
:10024600BAE06402700302033102032A90E6BCE0BE
:10025600547EFF7E00E0D394807C0040047D0180C4
:10026600027D00EC4EFEED4F2446F58274003EF50D
:1002760083E493FF3395E0FEEF24A1FFEE34E68F8F
:1002860082F58302032D90E6B8E064406003020322
:10029600319030C504F090E6BFE090E68AF090E633
:1002A600BEE09030BF804C90E6B8E064C0707CE55C
:1002B6000970789030C5F0750901806F90E6BAE054
:1002C600FF9030C6E4F0A3EFF090E6BBE0FE90307E
:1002D600C6E04EF0A3E0F090E6BEE09030BFF090AE
:1002E600E6B8E0B440149030C57402F090E6BFE082
:1002F60090E68AF090E6BEE0801F90E6B8E0B4C0D3
:1003060017E49030C5F09030C6E0FEA3E0FF9030D1
:10031600BFE0FD1217F68013E490E68BF0800C1216
:100326001C98500790E6A0E04401F090E6A0E04457
:0203360080F055
:0103380022A2
:030033000214FCB8
:0414FC0053D8EF32A0
:0C003600E4FEEEC39F5005053F0E80F66F
:01004200229B
:021D6600AD07C7
:101D6800E4FCECC39D50117FFA12003612003612C3
:081D780000361200360C80EA6F
:011D80002240
:1010000012010002FF000040D30B44040200010261
:1010100000010A0600020000004001000907450027
:10102000010100C0320904000003FF0000030705AE
:101030008203040001070501034000010705810345
:101040004000080904000103FF00000407058203B3
:10105000000401070501034000010705810340006A
:10106000080009024500010100C032090400000324
:10107000FF0000030705820340000107050103404C
:101080000001070581034000080904000103FF0077
:101090000004070582034000010705010340000129
:1010A00007058103400008000403090420034F00E2
:1010B000700068006900720020004F00700074002A
:1010C00072006F006E006900630073000E03500031
:1010D00055004C00530041005200100344006500CD
:1010E0006600610075006C0074000A034600610030
:0610F00073007400000013
:1019E200EF54F0C4540FF530EF540FF531E4FF74A7
:1019F200302FF8E6FED364809489500DEE2430FE39
:101A02000DEDAA0470120C800F74302FF8E6243703
:101A1200FE0DEDAA0470010C14F5828A83EEF00F1C
:091A2200BF02CC8D828C83E4F03C
:011A2B002298
:0812D2008C368D37AB07AA062C
:1012DA00EA54F0C4540F903057F0EA540FA3F0EBDD
:1012EA0054F0FFE4C4F854F0C8EFC4540F48A3F014
:1012FA00EB540FA3F0E4FFEFFD3395E0FC74572D98
:10130A00F58274303CF583E0FED3648094895010F2
:10131A00EE2430FE0537E537AC3670220536801EDE
:10132A00EFFD3395E0FC74572DF58274303CF5835C
:10133A00E02437FE0537E537AC367002053614F57A
:10134A00828C83EEF00FBF04AE853782853683E444
:01135A00F0A2
:01135B00226F
:081580008F338E328D318C3067
:10158800E4FFFEE53078101208E790304BEEF0A348
:10159800EFF07C307D4D1212D2E533FFE532FE903C
:1015A800304BEEF0A3EFF07C307D511212D2E49074
:1015B8003056F0903056E0FFC364809488502AEF8C
:1015C8003395E0FE744D2FF58274303EF583E0FFCD
:1015D8000535E535AC347002053414F5828C83EF9B
:1015E800F0903056E004F080CA853582853483E473
:0115F800F002
:0115F90022CF
:080C11008F338E328D318C30DF
:100C1900EC4D4E4F70150535E535AE34700205348F
:100C290014F5828E837430F0020D6AAF33AD31ACA6
:100C390030EC33501F0535E535AE347002053414F8
:100C4900F5828E83742DF0AE321208B28F338E3254
:100C59008D318C307F3F7E427D0F7C00AB33AA32D1
:100C6900A931A830D31208C0400C90304B12091991
:100C79003B9ACA008028E47F0F7E27FDFCAB33AA8C
:100C890032A931A830D31208C090304B400912095B
:100C990019000186A08007120919000003E8E490F1
:100CA900304FF090304FE0702290304BE0FCA3E0E1
:100CB900FDA3E0FEA3E0FFAB33AA32A931A830C3FC
:100CC9001208C0400690304F7401F090304FE06038
:100CD9002E90304BE0F8A3E0F9A3E0FAA3E0FBAFD4
:100CE90033AE32AD31AC30121AB9EF2430FF0535CD
:100CF900E535AC347002053414F5828C83EFF0AF1E
:100D090033AE32AD31AC3090304BE0F8A3E0F9A30B
:100D1900E0FAA3E0FB121AB9AC00AD01AE02AF03D1
:100D29008F338E328D318C3090304BE0FCA3E0FD57
:100D3900A3E0FEA3E0FFE47B0AFAF9F8121AB990DE
:100D4900304B12090DE4FFFEFDFC90304BE0F8A397
:100D5900E0F9A3E0FAA3E0FBD31208C04003020CB8
:090D6900AC853582853483E4F089
:010D7200225E
:041CC0008F828E83FE
:101CC400E4FFE0FE70047F018014C3EE648094E1BD
:101CD400400CD3EE648094FA5004E024E0F0A3EFC7
:021CE40060E0BE
:011CE60022DB
:100FC0008B308A3189328C338D34AB300532E53247
:100FD000AA317002053114F912085BFF0534E534BB
:100FE000AC337002053314F5828C83EFF0AA31A97B
:0E0FF0003212085B70D4853482853383F02280
:1018F6008B308A3189328C338D34853482853383BB
:10190600E0600A0534E53470F1053380EDAB30054F
:1019160032E532AA317002053114F912085BFF056F
:1019260034E534AC337002053314F5828C83EFF062
:10193600AA31A93212085B70D4853482853383F0CC
:01194600227E
:101DCC00E4FD0FEFAA0670010E14F5828A83E06021
:061DDC00030D80EEAF05CF
:011DE20022DE
:080D73008E308F318C328D337C
:100D7B00AA06A9077534018A358936E490304CF000
:100D8B00AB340536E536AA357002053514F9120871
:100D9B005B600890304CE004F080E590304CE0D381
:100DAB006480948440037404F090304CE0700885A8
:100DBB003382853283807C853382853283E4F0A352
:100DCB00F090304BF090304CE0FE90304BE0FDC398
:100DDB00EE6480F8ED6480984003020E99853182B1
:100DEB00853083E0FFC3648094C14010D3EF6480EF
:100DFB0094C6500890304D7437F0803CC3EF64803C
:100E0B0094E14010D3EF648094E6500890304D7419
:100E1B0057F08024C3EF648094B04010D3EF64800C
:100E2B0094B9500890304D7430F0800C8533828526
:100E3B003283E4F0A3F0FF22853182853083E0FB1F
:100E4B003395E0FA90304DE0F5823395E0F583C3AE
:100E5B00EB9582FBEA9583FAEE14C39D25E025E022
:100E6B00FFEBAE02A807088005C333CE33CED8F90B
:100E7B00FF853382853283EE8FF01208860531E5CC
:100E8B00317002053090304BE004F0020DD07F0141
:010E9B002234
:0A11A7008B308A3189328C338D348D
:1011B100E4F537853482853383E0FFC36480F8E545
:1011C10037648098500F74012532F532E43531F5DA
:1011D10031053780DE8F37AB30AA31A93212085B77
:1011E100B42011600F74012532F532E43531F53147
:1011F100053780E3E4FFAB30AA31A93212085BFE68
:101201006420602FEE602CC3EF6480948950240524
:1012110032E5327002053114F912085BFE0536E53C
:1012210036AC357002053514F5828C83EEF0053746
:101231000F80C3853682853583E4F085348285331A
:0412410083E537F01A
:011245002286
:101996003F42414420434F4D4D414E44003F554345
:1019A60020002A4446312E3330002A2046552D3455
:1019B60020002050554C5341522D002A4F4B003FDA
:1019C6004D454D204552524F52002A003F4E4F542E
:0C19D600204143434550544544000A00A2
:101AFD004B30B43F42414420504152414D00503093
:101B0D00A400000000000000000000000000000024
:011B1D0000C7
:100E9C009030BFE02440F582E434E7F583E4F07E43
:100EAC00E77F40121CC090E740E0642460037FCBD6
:100EBC00229030BFE0FE243FF582E434E7F583E076
:100ECC00640A60037FCC229030BFE0FF243FF582A0
:100EDC00E434E7F583E4F0743E2FF582E434E7F56F
:100EEC0083E0C39420500C743E2EF582E434E7F575
:100EFC0083E4F090E741E0C394204013E0D3947F67
:100F0C00500DA3E0C394204006E0D3947F40037FB0
:100F1C00CA2290E741E0FEA3E0FDED8EF0120970CD
:100F2C000F8C43460F7443530FAC46530F84474604
:100F3C000F5C48500F7C49490F6C52450FA4544D1F
:100F4C000F6456450F945A580F9C5A5900000FB411
:100F5C00903001740BF08056903001740CF0804E80
:100F6C009030017420F08046903001740DF0803E7A
:100F7C009030017418F080369030017419F0802E86
:100F8C009030017421F080269030017412F0801E94
:100F9C009030017423F080169030017424F0800E90
:100FAC009030017425F0800690300174C9F09030B7
:030FBC0001E0FF52
:010FBF00220F
:1005CF009030BFE0243FF582E434E7F583E4F0EFA9
:1005DF0012094A06320B06340C063D1806AA1906F4
:1005EF009B2007A02107FC2306D524082F250616DC
:1005FF00C9060DCA060DCB060DCC0000083C7BFFCB
:10060F007A19799602083590E741E0903001F09021
:10061F00E742E0903002F0E4A3F07BFF7A1979A370
:10062F00020819806A7BFF7A1979A80208357C3095
:10063F007D477F407E0012179A903047E0FCA3E081
:10064F00FDA3E0FEA3E0FF753430753501120C11E8
:10065F007BFF7A1979B07CE77D40120FC07B017A5E
:10066F003079017CE77D401218F67BFF7A1979B853
:10067F007CE77D401218F6121B3A903041EFF0E004
:10068F002430903001F0E4A3F002082075080190A7
:10069F00E740742AF0E4A3F002083C121B75903077
:1006AF0043EEF0A3EFF0903043E0FEA3E0FFE4FC55
:1006BF00FD753430753501120C1190E740742AF036
:1006CF00E4A3F00208209030417403F07B017AE735
:1006DF0079407C307D417535307536011211A77E1A
:1006EF00307F017C307D43120D73903042EFF070FC
:1006FF0003020795A3E0FEA3E0FFA3EEF0A3EFF044
:10070F008E2DF52E7B017AE779407C307D41753552
:10071F00307536011211A77E307F017C307D431278
:10072F000D73903042EFF06032A3A3E0F52F852ECA
:10073F0082852D83E52FF07F1E120036852E828550
:10074F002D83E07BFFB52F067A1979C180047A19C2
:10075F0079C57CE77D40120FC0802B852E82852DB9
:10076F0083E0F52F903001742AF07C307D02AF2F9B
:10077F001219E27B017A3079017CE77D40120FC0BC
:10078F009030427401F0903042E0600302083C80E8
:10079F00549030417403F07B017AE779407C307DCF
:1007AF00417535307536011211A77E307F017C30CF
:1007BF007D43120D73903041EFF0E060289030438D
:1007CF00E064077004A3E06477701A12173C90304E
:1007DF0041EFF0E07BFFB401067A1979D080047AFB
:1007EF001979D280417B017A3079B4803990309C6D
:1007FF00E0FCA3E0FDA3E0FEA3E0FF753430753508
:10080F00011215807BFF7A1979D07CE77D40120F9A
:10081F00C07B017A3079017CE77D401218F6800D9C
:10082F007BFF7A1979D07CE77D40120FC07BFF7A6E
:10083F001979E07CE77D401218F6E490E68AF07EA5
:0B084F00E77F40121DCC90E68BEFF01D
:01085A00227B
:101C400090E682E030E004E020E60B90E682E030AF
:101C5000E119E030E71590E680E04401F07F147E62
:0C1C600000121A7390E680E054FEF0229F
:10000E0090E682E044C0F090E681F0438701000064
:04001E0000000022BC
:101BE20030040990E680E0440AF0800790E680E045
:101BF2004408F07FDC7E05121A7390E65D74FFF0F4
:0F1C020090E65FF05391EF90E680E054F7F02208
:021C6C00A907C6
:101C6E00AE17AF188F828E83A3E064037017AD0199
:101C7E0019ED7001228F828E83E07C002FFDEC3EE9
:091C8E00FEAF0580DF7E007F003F
:011C9700222A
:101A73008E2D8F2E90E600E054187012E52E24016F
:101A8300FFE4352DC313F52DEF13F52E801590E6E6
:101A930000E05418FFBF100BE52E25E0F52EE52DD1
:101AA30033F52DE52E152EAE2D7002152D4E600546
:061AB30012002280EE2269
:100022007400F58690FDA57C05A3E582458370F9F1
:0100320022AB
:101B1E004130670041308B0042305B000142305D46
:071B2E00000242306C0001CF
:10173C0053B1EF7F0512003643B110E490304BF0FB
:10174C00A3F0E5B120E60CE490304DF07F01121DC2
:10175C0066800690304D7401F090304CE004F070CF
:10176C000690304BE004F0C390304CE094E890309D
:10177C004BE064809483500690304DE060C4903010
:0D178C009C1209190000000090304DE0FF94
:01179900222D
:101D0D00EF30E00543A002800353A0FDEF30E10565
:101D1D0043A004800353A0FB7F0112003653A07F24
:011D2D002293
:0B13E600A3E0FF1213F1903001E0FFC4
:1013F100E5A054F9FE4402FDEF540170048EA08073
:10140100028DA043A004EF540270048EA080028DCF
:10141100A043A004EF540470048EA080028DA04369
:10142100A004EF540870048EA080028DA043A00494
:10143100EF541070048EA080028DA043A004EF54DD
:101441002070048EA080028DA043A004EF54407050
:10145100048EA080028DA043A004EF548070048EFE
:0B146100A080028DA043A00453A0FB5C
:01146C00225D
:071E6B0043A08053A0F922FF
:0F1E5C008F367F02121D0DAF361213F1021E6B6F
:0215FA008F362A
:1015FC007F01121D0DE4F53EF53DF53CF53B753ACA
:10160C0001F539F538F5377F01120036E53614FB54
:10161C00C3EB64809480403B43A00453A0FBE5A043
:10162C0030E018E53E453AF53EE53D4539F53DE5FA
:10163C003C4538F53CE53B4537F53BAF3AAE39AD6B
:10164C0038AC3778011208FA8F3A8E398D388C37CE
:10165C001B80BD43A08053A0F9AF3EAE3DAD3CAC6A
:01166C003B42
:01166D00225A
:101CE70090305DE07004A3E06402700790304B040D
:101CF700F08005E490304BF0903080E0FF90304B5F
:061D0700E04FFF021E5C2C
:101B75007F07121E5C7F201215FA8F338E328D314E
:101B85008C30E48E348F35FFFEE53078101208E78F
:101B9500EF64137003EE640F6005E4F534F5351258
:061BA5001CE7AE34AF3571
:011BAB002217
:100A6B0090305FE07002A3E0700790305FF0A3045A
:100A7B00F0903061E07002A3E07007903061F0A35A
:100A8B0004F0903063E07002A3E07007903063F0E5
:100A9B00A304F0903065E07002A3E070079030651E
:100AAB00F0A304F0E4FF121D0DE4903001F0903040
:100ABB006EE07004A3E064027007903001E0440123
:100ACB00F0903078E07004A3E0640270079030017E
:100ADB00E04402F090305FA3E0FF1213F190305F1F
:100AEB00E0FF1213F19030831213E6E4F0903070B4
:100AFB00E07004A3E064027007903001E04401F061
:100B0B0090307AE07004A3E064027007903001E04B
:100B1B004402F0903061A3E0FF1213F1903061E0DA
:100B2B00FF1213F19030851213E6E4F0903072E06F
:100B3B007004A3E064027007903001E04401F09070
:100B4B00307CE07004A3E064027007903001E04455
:100B5B0002F0903063A3E0FF1213F1903063E0FFDB
:100B6B001213F19030871213E6E4F0903074E070BA
:100B7B0004A3E064027007903001E04401F0903070
:100B8B007EE07004A3E064027007903001E0440241
:100B9B00F0903065A3E0FF1213F1903065E0FF1287
:100BAB0013F19030891213E6903081A3E0FF1213FA
:100BBB00F1903081E0FF1213F19030A0A3E0FF120F
:100BCB0013F19030A0E0A3FF1213F1A3A3E0FF12E7
:100BDB0013F19030A2E0FF1213F190308BE0D3941D
:100BEB00004008752D00752E808005E4F52DF52E3F
:100BFB00903076A3E0452EFF1213F1903067E0FFA3
:060C0B001213F1021E6B42
:1010F60090305FE4F0A37464F0903083E4F0A304CE
:10110600F090306EE4F0A304F0903078E4F0A3049D
:10111600F0903061E4F0A37464F0903085E4F0A3BD
:1011260004F0903070E4F0A304F090307AE4F0A379
:1011360004F0903063E4F0A37464F0903087E4F038
:10114600A304F0903072E4F0A304F090307CE4F055
:10115600A304F0903065E4F0A37464F0903089E461
:10116600F0A304F0903074E4F0A304F090307EE431
:10117600F0A304F0903081E4F0A37464F09030A002
:10118600E4F0A37464F0A3E4F0A37480F0903076E6
:10119600E4F0A37402F090309C12091900000000DC
:0111A6002226
:10194700EDD3941040027D10AA06A90790300274C7
:1019570001F0A3EAF0A3E9F0E4903001F090300140
:10196700E0FFC39D502874402FF582E434E7F583E8
:10197700E0FF903002E0FBA3E475F00112089CA998
:0E198700F0FAEF120874903001E004F080CF07
:01199500222F
:1017F600EDD3941040027D10AA06A907903002741A
:1018060001F0A3EAF0A3E9F0E4903001F090300192
:10181600E0FFC39D5026A3E0FBA3E475F001120888
:101826009CA9F0FA12085BFE74402FF582E434E7B7
:10183600F583EEF0903001E004F080D1E490E68A82
:06184600F090E68BEDF0CE
:01184C002279
:041B35004130C20079
:10135C0090E600E054E74410F090E60174A3F0909E
:10136C00E61074B0F000000090E611F00000009060
:10137C00E61274F8F000000090E6137422F00000FE
:10138C000090E6147462F000000090E6157422F0F0
:10139C0090E618740CF000000090E680E030E7084E
:1013AC0090E6207404F08005E490E620F000000044
:1013BC0090E680E030E707E490E621F0800690E6C6
:1013CC00217440F0000000E490E619F090E61AF069
:0A13DC0090E61BF043AF07D2002299
:1016D9009030C1E0605CE4F07AE779807EE774E7F6
:1016E900F59A7480F59B90E68DE0F52EE4F52DE5ED
:1016F9002DC3952E500E90E67BE0F52FFF1213F1C6
:10170900052D80EB90309CE0F8A3E0F9A3E0FAA363
:10171900E0FBE4FCFDFEEB252EFFEE3AFEED39FD84
:10172900EC38FC90309C12090D90E68D7480F00025
:021739000000AE
:01173B00228B
:02005000D322B9
:020FFE00D322FC
:021E7200D32279
:0800030090E6BAE0F51AD322E1
:101E380090E740E51AF0E490E68AF090E68B04F02B
:021E4800D322A3
:0814F40090E6BAE0F519D322DD
:101E4A0090E740E519F0E490E68AF090E68B04F01A
:021E5A00D32291
:021E7400D32277
:021E7600D32275
:021E7800D32273
:101C980090E6B9E0242F600D04701990E604E0FF87
:101CA800430780800890E604E0FF53077F000000A8
:071CB800EFF08002D322C30C
:011CBF002202
:101D9C00C0E0C083C082D2015391EF90E65D740124
:081DAC00F0D082D083D0E032B8
:101DE300C0E0C083C0825391EF90E65D7404F0D0ED
:061DF30082D083D0E03233
:101DF900C0E0C083C0825391EF90E65D7402F0D0D9
:061E090082D083D0E0321C
:1018A300C0E0C083C08285120E85130F850F828529
:1018B3000E83A37402F0850A10850B1185118285AE
:1018C3001083A37407F063B00190E61274F8F0007C
:1018D300000090E620E4F000000090E6217440F060
:1018E3000000005391EF90E65D7410F0D082D08336
:0318F300D0E03210
:101DB400C0E0C083C082D2035391EF90E65D740803
:081DC400F0D082D083D0E032A0
:10184D00C0E0C083C08243B002850A0E850B0F85B0
:10185D000F82850E83A37402F085121085131185F6
:10186D001182851083A37407F090E61274F8F000CE
:10187D00000090E6207404F000000090E621E4F0F2
:10188D0000000053B0FD5391EF90E65D7420F0D051
:06189D0082D083D0E0328E
:01005200327B
:011E7A003235
:011E7B003234
:101D8100C0E0C083C0829030C07401F05391EF90E5
:0B1D9100E65F04F0D082D083D0E03287
:011E7C003233
:101D2E00C0E0C083C0829030C17401F05391EF9037
:0C1D3E00E65F7408F0D082D083D0E03261
:011E7D003232
:011E7E003231
:011E7F003230
:011E8000322F
:011E8100322E
:011E8200322D
:011E8300322C
:011E8400322B
:011E8500322A
:011E86003229
:011E87003228
:011E88003227
:011E89003226
:011E8A003225
:011E8B003224
:011E8C003223
:101E0F00C0E0C083C0825391BF9030C47401F0D042
:061E1F0082D083D0E03206
:101E2500C0E0C083C0829030C2E004F0D082D0838D
:031E3500D0E032C8
:03004300021500A3
:03005300021E0F7B
:03000B00021E25AD
:10150000021D9C00021DF900021DE300021DB40033
:101510000218A30002184D0002005200021E7A00B9
:10152000021E7B00021D8100021E7C00021D2E0097
:10153000021E7D00021E7E00021E7F00021E800031
:10154000021E8100021E7A00021E8200021E83001B
:10155000021E8400021E8500021E8600021E8700F5
:10156000021E8800021E7A00021E7A00021E7A0005
:10157000021E8900021E8A00021E8B00021E8C00C1
:08166E008F328C338D348B3573
:10167600D3E535648094884003753508E49030518D
:10168600F0903051E0FFC3E5356480F8EF64809850
:10169600503DE53270250534E534AE33700205332E
:1016A60014FFE537FD2402F537E536FC3400F53640
:1016B60012146D903052EEF0A3EFF0903052E0FE2F
:1016C600A3E0FF4E600122903051E004F080B2E4C6
:0216D600FEFF15
:0116D80022EF
:04179A008C308D31D1
:10179E00EEC313FCEF13FD75363075374B7B02E449
:1017AE00FF12166E90304FEEF0A3EFF090304DE03A
:1017BE00FEA3E0FFE4FCFD78101208FAA804A905C8
:1017CE00AA06AB0790304BE0FEA3E0FFEB4FFFEA1B
:1017DE004EFEE9FDE8FC85318285308312090D90BD
:0717EE00304FE0FEA3E0FF15
:0117F50022D1
:101B3A007C307D4B7F327E0012146DC390304CE0B6
:101B4A00940190304BE094005005E4F0A304F0D3E4
:101B5A0090304CE0940490304BE094004006E4F05E
:0A1B6A00A37404F090304BA3E0FFD9
:011B7400224E
:101D4A0090E678E04440F07F107E27EF1F70011E76
:0B1D5A0090E678E030E604EF4E70F0F9
:011D6500225B
:101A2C0090E679EFF07FD07E07EF1F70011E90E6F5
:101A3C0078E020E00BD3EF9400EE6480948050E9C2
:101A4C0090E678E020E0037F012290E678E030E237
:101A5C0006121D4A7F022290E678E020E106121D54
:061A6C004A7F03227F0007
:011A72002251
:061C11007B007A00793A25
:101C170090E679E0FF7EFF1E90E678E020E003EE95
:101C270070F590E678E030E20B121D4A7401120855
:081C3700747F0022E41208741E
:011C3F002282
:041BAC00AD07AC06CF
:101BB00090E678E04480F0D3ED94FFEC9407400386
:101BC000530407AF04EF25E044A0FF121A2CEF6086
:101BD0000122AF05121A2CEF6005E42405FF227FD5
:011BE0000004
:011BE10022E1
:04146D008C388D39F1
:101471008D828C83E4F0A3F0EF25E0FFEE33AB0720
:10148100FAFE121BAC8F3AE53A60037E002290E629
:1014910078E04480F0D3EB94FFEA940740035302D1
:1014A10007AF02EF25E044A1FF121A2CEF60057E81
:1014B100507F0122121C11AD07E53A60057E507F75
:1014C100022290E678E04420F0121C11AD07E53AC3
:1014D10060057E507F032290E678E04440F090E67C
:1014E10079E0FFED853982853883CFF0A3EFF0E411
:0214F100FEFFFC
:0114F30022D6
:03000000021246A3
:0C124600787FE4F6D8FD75813F02128D20
:10085B00BB010689828A83E0225002E722BBFE029B
:09086B00E32289828A83E49322CE
:10087400BB010689828A83F0225002F722BBFE0163
:02088400F3225D
:10088600C5F0F8A3E028F0C5F0F8E58215827002FD
:060896001583E038F0229A
:10089C00A3F8E0C5F025F0F0E5821582700215830F
:0608AC00E0C838F0E8226C
:101AB900C2D5E830E70FB2D5E4C39BFBE49AFAE458
:101AC90099F9E498F8EC30E717B2D5121AEF120930
:101AD900D9E4C39BFBE49AFAE499F9E498F8800302
:101AE9001209D930D50DE4C39FFFE49EFEE49DFDA4
:041AF900E49CFC224B
:0E08B200C3E49FFFE49EFEE49DFDE49CFC2257
:1008C000EB9FF5F0EA9E42F0E99D42F0EC6480C8AF
:0608D00064809845F0224F
:1008D600EB9FF5F0EA9E42F0E99D42F0E89C45F078
:0108E60022EF
:1008E700E8600FECC313FCED13FDEE13FEEF13FFEF
:0308F700D8F12213
:1008FA00E8600FEFC333FFEE33FEED33FDEC33FC5C
:03090A00D8F122FF
:0C090D00ECF0A3EDF0A3EEF0A3EFF0225D
:10091900A8828583F0D083D082120930120930125F
:100929000930120930E473E493A3C583C5F0C58384
:10093900C8C582C8F0A3C583C5F0C583C8C582C828
:01094900228B
:10094A00D083D082F8E4937012740193700DA3A33C
:10095A0093F8740193F5828883E473740293686050
:06096A00EFA3A3A380DF50
:10097000D083D082F8E4937012740193700DA3A316
:1009800093F8740193F5828883E473740293B5F04D
:0D099000067403936860E9A3A3A3A380D8B5
:10125200020339E493A3F8E493A34003F68001F276
:1012620008DFF48029E493A3F85407240CC8C3339D
:10127200C4540F4420C8834004F456800146F6DF6C
:10128200E4800B0102040810204080901AFDE47EE5
:10129200019360BCA3FF543F30E509541FFEE49361
:1012A200A360010ECF54C025E060A840B8E493A328
:1012B200FAE493A3F8E493A3C8C582C8CAC583CA53
:1012C200F0A3C8C582C8CAC583CADFE9DEE780BE0B
:011B390000AB
:10099D0075F008758200EF2FFFEE33FECD33CDCC11
:1009AD0033CCC58233C5829BED9AEC99E582984094
:1009BD000CF582EE9BFEED9AFDEC99FC0FD5F0D671
:1009CD00E4CEFBE4CDFAE4CCF9A88222B800C1B99B
:1009DD000059BA002DEC8BF084CFCECDFCE5F0CBD9
:1009ED00F97818EF2FFFEE33FEED33FDEC33FCEB12
:1009FD0033FB10D703994004EB99FB0FD8E5E4F9CD
:100A0D00FA227818EF2FFFEE33FEED33FDEC33FCB9
:100A1D00C933C910D7059BE99A4007EC9BFCE99AAD
:100A2D00F90FD8E0E4C9FAE4CCFB2275F010EF2FF2
:100A3D00FFEE33FEED33FDCC33CCC833C810D707F2
:100A4D009BEC9AE899400AED9BFDEC9AFCE899F82D
:0E0A5D000FD5F0DAE4CDFBE4CCFAE4C8F922C0
:00000001FF
