:0ADF5A0000010202030304040505A0
:10BBB300EC4EFEED4F245AF58274DF3EF583E49399
:10BBC300FF3395E0FEEF24A1FFEE34E68F82F58389
:10BBD30022F0E5242401FFE43523FEE43522FDE4CD
:10BBE30035218F248E238D22F52122AF28AE27AD58
:10BBF30026AC25C3AB24AA23A922A8210246FB9085
:10BC0300E6BCE0547EFF7E00E0D394807C0022AF4C
:10BC13001BEF3395E0FE74BB2FF582740D3EF58365
:10BC230022900E2FE0FEA3E0FF900E28E0FD22E518
:10BC33002A2524F582E5293523F58322F524F523E6
:10BC4300F522F52122900E2EF090E6BFE090E68AD1
:01BC530022CE
:10DC9000EF24F6601524DD6014240324FB500B24CC
:10DCA000EE6007146004243970037F01227F002294
:0EDEFF00EF24D560030470037F01227F002210
:10697B00E4F508C203C200D202C201F516F50912F2
:10698B00C6EB7EAC7F008E0C8F0D7514AC7515129B
:10699B00750AAC750B1C7512AC7513627517AC755B
:1069AB0018A890E680E030E70E850A0E850B0F8560
:1069BB001210851311800C85120E85130F850A108A
:1069CB00850B11850F82850E83A37402F0851182CE
:1069DB00851083A37407F0EE54E07003026A94757C
:1069EB002900752A807EAC7F008E2B8F2CC374F40C
:1069FB009FFF74AC9ECF2402CF3400FEE48F288E11
:106A0B0027F526F52512BC3F12BBEE500A12BC32FD
:106A1B0074CD12BBD480F1E412BC3F12BBEE501705
:106A2B00E52C2524F582E52B3523F583E0FF12BCFD
:106A3B0032EF12BBD480E485290C852A0D74002417
:106A4B0080FF74AC34FFFEC3E5159FF515E5149E6E
:106A5B00F514C3E50F9FF50FE50E9EF50EC3E5117B
:106A6B009FF511E5109EF510C3E50B9FF50BE50A9D
:106A7B009EF50AC3E5139FF513E5129EF512C3E5C8
:106A8B00189FF518E5179EF51790E6707440F07592
:106A9B00B23FE4F580A3F075B4FE75A0C0A3F0750A
:106AAB00B63F43B10F75B5FFF5B0D2E843D8209090
:106ABB00E668E04408F0E054FEF0E054FDF090E6A8
:106ACB005CE0443DF090E65EE0448AF0D2EAD2AF5F
:106ADB005391BF90E680E020E105D20412D9499092
:106AEB00E680E054F7F0538EF8C203751B0112BC1D
:106AFB00F4E4900E29F07D0F7F0112C00A7D0F7F09
:106B0B000212C00A7D0F7F0312C00A7D0F7F041291
:106B1B00C00A900DC0E4F0A304F0E49007F5F0A3D5
:106B2B00F0A3F0A3F0FF12D8127C0D7DD57F047E6D
:106B3B000012CA80900DD5E07002A3E07008900D92
:106B4B00D5F0A37464F07F3212DF1B7C0D7DCA7FFE
:106B5B00057E0012CA80900DCAE07002A3E0700897
:106B6B00900DCAF0A37402F07F0112C3977F02123B
:106B7B00C3977F0312C3977F0412C39712DB29902D
:106B8B000DDFEFF0128E8412DCCF12DE4F12D9A67E
:106B9B005389FB5389FD438901538EF7438810D2E8
:106BAB00A9E508600302697B300105127D9DC201D6
:106BBB0030032912DF8F5024C20312DB772000161B
:106BCB0090E682E030E704E020E1EF90E682E030EF
:106BDB00E604E020E0E412DA0012DF9112D22490F6
:106BEB000E2DE0604FE4F043B00112B1609004F958
:106BFB00EFF07B017A0479F912DCB09004F9E0FF35
:106C0B00C0073395E0FEEF7802C333CE33CED8F90D
:106C1B0024DCF582740D3EF5831247808F318E3064
:106C2B008D2F8C2ED0071273F69004F9E0FF128192
:106C3B00F853B0FE900E2BE0C394144008E4F0120E
:106C4B00DEAF63B001E5097003026D17900E2CE007
:106C5B00FF12DC90EF7003026D00C3900DB0E09457
:106C6B0002900DAFE094005040E4F0A37402F012D8
:106C7B00D730E475240112BC41E47F04FEFDFCD344
:106C8B0012BBF7501274BB2524F582740D3523F516
:106C9B0083E412BBD480E27D01E4FF12DD79E49042
:106CAB0004F8F0900E2DF08052AF1B12DB9CEF60BE
:106CBB0044D3900DB0E09401900DAFE094004035BB
:106CCB00AF1BEF3395E0FE741F2FF582740E3EF56C
:106CDB0083E0700B900E2CE0FF12DEFFEF700A12B8
:106CEB00BC12E09004F8F08012E49004F8F012BCAF
:106CFB0012E4F080069004F87401F09004F8E06060
:106D0B000BE4F509900E2CE0FF125882900E29E04F
:106D1B006020E4F0900E2EE0B4010A127B52900E2C
:106D2B002CEFF0800D900E2EE0B4020612BC241254
:106D3B00D7DB90E680E030E70643B004026BAC5340
:056D4B00B0FB026BAC7F
:107D9D0090E6B9E012483A7E54007EA6017F440277
:107DAD007F02037F5D047DC9067E4E087E48097EF5
:107DBD003C0A7E420B7F72B000007FC312DF9340FE
:107DCD0003027FCF90E6BBE024FE602814603F24C1
:107DDD00FD601414602B24067052E50C90E6B3F090
:107DED00E50DA3F0027FCFE51490E6B3F0E515A302
:107DFD00F0027FCFE50E90E6B3F0E50FA3F0027F22
:107E0D00CFE51090E6B3F0E511A3F0027FCF90E639
:107E1D00BAE0FF12DA2CAA06A9077B01EA494B60EA
:107E2D000BEE90E6B3F0EFA3F0027FCF027FC81206
:107E3D00DF89027FCF12DF6C027FCF12DF64027FFA
:107E4D00CF12DF83027FCF12DF954003027FCF90E9
:107E5D00E6B8E0247F601514601924027038A20082
:107E6D00E43325E0FFA202E4334F8018E490E740AD
:107E7D00F0801612BC0240047D0180027D0012BB11
:107E8D00B3E0540190E740F0E4A3F090E68AF0A34C
:107E9D007402F0027FCF027FC812DF974003027F8A
:107EAD00CF90E6B8E024FE601624026003027FCF77
:107EBD0090E6BAE0B40105C200027FCF027FC89000
:107ECD00E6BAE0702D12BC0240047D0180027D00F7
:107EDD0012BBB3E054FEF090E6BCE05480131313D4
:107EED00541FFFE0540F2F90E683F0E04420F00282
:107EFD007FCF027FC812DF994003027FCF90E6B893
:107F0D00E024FE602124026003027FCF90E6BAE0F8
:107F1D00B40105D200027FCF90E6BAE0640270038F
:107F2D00027FCF027FC812BC0240047D0180027D1A
:107F3D000012BBB3027FCB90E6B8E0644060030251
:107F4D007FCF0412BC48F090E6BEE0900E2880442E
:107F5D0090E6B8E064C0706AE5097066900E2EF088
:107F6D00750901805D90E6BAE0FF900E2FE4F0A355
:107F7D00EFF090E6BBE0FE900E2FE04EF0A3E0F0A8
:107F8D0090E6BEE0900E28F090E6B8E0B4400C7498
:107F9D000212BC48F090E6BEE0801590E6B8E0B461
:107FAD00C00DE4900E2EF012BC2412D57E8013E489
:107FBD0090E68BF0800C12DB01500790E6A0E044B8
:097FCD0001F090E6A0E04480F010
:017FD6002288
:0300330002C9FB04
:04C9FB0053D8EF32EC
:0CDF1B00E4FEEEC39F500505600E80F68A
:01DF270022D7
:02DD4500AD0728
:10DD4700E4FCECC39D50117FFA12DF1B12DF1B129C
:08DD5700DF1B12DF1B0C80EA48
:01DD5F0022A1
:10AC000012010002FF000040D30B440402000102C5
:10AC100000010A060002000000400100090745008B
:10AC2000010100C0320904000003FF000003070512
:10AC300082030400010705010340000107058103A9
:10AC40004000080904000103FF0000040705820317
:10AC500000040107050103400001070581034000CE
:10AC6000080009024500010100C032090400000388
:10AC7000FF000003070582034000010705010340B0
:10AC80000001070581034000080904000103FF00DB
:10AC9000000407058203400001070501034000018D
:10ACA00007058103400008000403090420034F0046
:10ACB000700068006900720020004F00700074008E
:10ACC00072006F006E006900630073000E03500095
:10ACD00055004C0053004100520010034400650031
:10ACE0006600610075006C0074000A034600610094
:06ACF00073007400000077
:10DEC10062696700786166706E756D204B4D4754CD
:10ACF600E475F0011248010244F3D3AB4AAA49A90C
:10AD060048A8470246E59005EAE0FF3395E0FEEFE6
:10AD160024D0FFEE34FFFEE4FCFD22EFFD3395E088
:10AD2600FC74CB2DF58274053CF583E022EFFB33F2
:10AD360095E0FA74302BF58274063AF5832214F501
:10AD4600828C83EFF022FD3395E0FC745E2DF58254
:10AD560074053CF583228F4A8E498D488C472274B0
:10AD660001253EF53EE4353DF53D054322C36480AD
:10AD7600F8EF64809822853F82853E8322FEE0FDBF
:10AD8600C3EE6480F8ED6480982212466E9005EC5E
:10AD96000247B87E067F1412DE27900611EFF022D6
:10ADA60090055AE0FEA3E0FFE4FCFD2274142FF5A3
:10ADB6008274063EF583227B017A067908AD3AACA9
:10ADC600392290063002478C14F5828A83E0228568
:0FADD600318285308322AB3CAA3DA93E0244F373
:10D9D400EFD39409500DEF2430FF0DEDAA04700E1F
:10D9E4000C800BEF2437FF0DEDAA0470010C14F525
:0CD9F400828A83EFF08D828C83E4F022A5
:10D31400EF54F0C4540FF534EF540FF535E4FF74B3
:10D32400342FF8E6FED364809489500DEE2430FE49
:10D334000DEDAA0470120C800F74342FF8E6243714
:10D34400FE0DEDAA0470010C14F5828A83EEF00F31
:09D35400BF02CC8D828C83E4F051
:01D35D0022AD
:08CDB6008C348D35AB07AA0691
:10CDBE00EA54F0C4540F9005CBF0EA540FA3F0EBF5
:10CDCE0054F0FFE4C4F854F0C8EFC4540F48A3F075
:10CDDE00EB540FA3F0E4FF12AD21FED364809489CF
:10CDEE005010EE2430FE0535E535AC3470140534A4
:10CDFE00801012AD212437FE0535E535AC347002B6
:10CE0E00053414F5828C83EEF00FBF04CA8535828B
:05CE1E00853483E4F0FF
:01CE230022EC
:08CBED008F318E308D2F8C2E4C
:10CBF500E4FFFEE52E781012470C90055AEEF0A3DF
:10CC0500EFF07C057D5C12CDB6E531FFE530FE9099
:10CC1500055AEEF0A3EFF07C057D6012CDB6E490E9
:10CC25000565F0900565E0FFC3648094885026EFA4
:10CC35003395E0FE745C2FF58274053EF583E0FFC5
:10CC45000533E533AC327002053212AD449005650B
:0DCC5500E004F080CE853382853283E4F068
:01CC620022AF
:03A7DE0012AD5C5D
:10A7E100EC4D4E4F7015054CE54CAE4B7002054BD0
:10A7F10014F5828E837430F002A8D6AF4AAD48AC0E
:10A8010047EC33501A054CE54CAE4B7002054B1426
:10A81100F5828E83742DF0AE491246D712AD5C7F5E
:10A821003F7E427D0F7C0012AD00400C900630123D
:10A8310047C43B9ACA00801FE47F0F7E27FDFC12AC
:10A84100AD0090063040091247C4000186A0800780
:10A851001247C4000003E8E4900634F0900634E0A7
:10A861007012900630124780C312AD014006900667
:10A87100347401F0900634E0601F12ADC8AF4AAEE7
:10A8810049AD48AC4712D474EF2430FF054CE54C78
:10A89100AC4B7002054B12AD44AF4AAE49AD48AC6A
:10A8A1004712ADC812D474AC00AD01AE02AF0312B1
:10A8B100AD5C900630124780E47B0AFAF9F812D4B5
:10A8C100749006301247B8E4FFFEFDFC12ADC8D308
:0DA8D1001246E55087854C82854B83E4F0EC
:01A8DE002257
:04ABD9008F828E8356
:10ABDD00E4FFE0FE70047F018014C3EE648094E115
:10ABED00400CD3EE648094FA5004E024E0F0A3EF1F
:02ABFD0060E016
:01ABFF002233
:10D919008B488A49894A8C4B8D4C784812ACF6FF62
:10D92900054CE54CAC4B7002054B12AD44AB48AA13
:10D9390049A94A1244F370E2854C82854B83F0224F
:10D4B8008B3C8A3D893E8C3F8D40854082853F83E9
:10D4C800E0600A0540E54070F1053F80ED783C12C8
:10D4D800ACF6FF0540E540AC3F7002053F12AD4495
:10D4E800AB3CAA3DA93E1244F370E2854082853FD9
:03D4F80083F0229C
:10DE2700E4FD0FEFAA0670010E12ADCE60030D8060
:03DE3700F1AF0543
:01DE3A0022C5
:08BF6E008E478F488D49AC039A
:10BF760012DE278F4AC3EC6480F8E54A6480984055
:10BF86000302C009754B0185474C85484DE4FFE522
:10BF96004A12AD7350210548E548AA477002054785
:10BFA60012ADCEFEC3EC954A2F2430F582E434065A
:10BFB600F583EEF00F80D8E4FFC3EC954A12AD731B
:10BFC600500912AD33E549F00F80EEECFF3395E0F2
:10BFD600FE74302FF58274063EF583E4F0FFEC1212
:10BFE600AD73501512AD33E0FE784BE475F00112D7
:10BFF6004801EE1245390F80E5AB4BAA4CA94DE43A
:03C00600124539A7
:01C009002214
:08A3C7008E3C8F3D8C3E8D3F62
:10A3CF00AA06A9077540018A418942E49005FBF06E
:10A3DF00784012ACF660089005FBE004F080F19035
:10A3EF0005FBE0D36480948440037404F09005FB74
:10A3FF00E0700512AD7C806D12AD7CE4F0A3F0909F
:10A40F0005FAF09005FBE09005FA12AD83400302C8
:10A41F00A4CC853D82853C83E0FFC3648094C1401A
:10A42F0010D3EF648094C650089005FC7437F08009
:10A43F0039C3EF648094E14010D3EF648094E65009
:10A44F00089005FC7457F08021C3EF648094B040EE
:10A45F0010D3EF648094B950089005FC7430F080ED
:10A46F000912AD7CE4F0A3F0FF22853D82853C8389
:10A47F00E0FB3395E0FA9005FCE0F5823395E0F5CB
:10A48F0083C3EB9582FBEA9583FAEE14C39D25E017
:10A49F0025E0FFEBAE02A807088005C333CE33CE0D
:10A4AF00D8F9FF12AD7CEE8FF0124593053DE53DD7
:0FA4BF007002053C9005FAE004F002A4127F0140
:01A4CE00226B
:08AADF008E2E8F2F8C308D317B
:10AAE7008531828530831247C400000000AF2FAE46
:10AAF7002E12DE2790055CEFF0C36480948150032B
:10AB07007F002290055CE0D364809488400374083A
:10AB1700F0E4900567F090055CE0FFC374089FFFC1
:10AB2700900567E0FEC3EF6480F8EE648098500FED
:10AB3700EE12AD4C7430F0900567E004F080D790CA
:10AB47000567EFF0900567E0FFC364809488501FA6
:10AB5700052FE52FAC2E7002052E14F5828C83E0AD
:10AB6700FEEF12AD4CEEF0900567E004F080D5E4FF
:10AB7700900566F07E057F6212ABCC7002FF221251
:10AB8700ADA69005681247B8E4900562F07E057F90
:10AB97005E12ABCC7002FF2290056812478CC00092
:10ABA70012ADA67810124733D00012466E90056892
:10ABB7001247B89005681247808531828530831225
:04ABC70047B87F010B
:0EABCB00227C057D5A12A3C790055DEFF02293
:08C4BA008E2E8F2F8C308D3186
:10C4C200AA06A9077B019005601248311244F3B411
:10C4D2002D1090055F7401F0052FE52F7009052ED0
:10C4E2008005E490055FF07C057D5AAF2FAE2E12D9
:10C4F200A3C7EF700612ADD5F0FF2290055AE0FCFB
:10C50200A3E0FDD39499EC9400400712ADD5E4F07A
:10C51200FF22ECC4F854F0C868FEEDC4540F48FF83
:10C5220090055CEEF0A3EFF075F006A4FFC3ED9F5B
:10C53200A3F0A3E0600790055EE0F404F090055ECE
:07C54200E012ADD5F07F010E
:01C5490022CF
:08A076008E388F398C3A8D3BC6
:10A07E00853B82853A831247C400000000853982F1
:10A08E00853883E0B42D109005E87401F00539E5AC
:10A09E0039700905388005E49005E8F0AF39AE381F
:10A0AE0012DE279005E9EFF0C3648094814008E04A
:10A0BE00D36480948A40037F00229005EC1247C43B
:10A0CE0000000000E49005EBF09005E9E014900527
:10A0DE00EB12AD83506B0539E539AA38700205389D
:10A0EE0012ADCE9005EAF0E0FFC3648094B0400854
:10A0FE00D3EF648094B940037F0022C3EE9DFF121C
:10A10E00CE249005F01247B89005EAE0D36480940F
:10A11E00B040259005EC12478CC000C001C002C0B3
:10A12E000312AD0C9005F012478C12467BD003D073
:10A13E0002D001D00012AD909005EBE004F002A029
:10A14E00D70539E539AE387002053814F5828E839D
:10A15E00E09005EAF09005EC12478C12AD0C12ADB2
:10A16E00909005E8E0600C9005EC1247801246D7FF
:10A17E0012AD939005EC124780853B82853A83128F
:04A18E0047B87F014E
:01A1920022AA
:04CE87008C368D3721
:10CE8B007C057DE312A0769005E7EFF0E47FFF7E53
:10CE9B007FFDFC9005E312478CD31246E5400A90C8
:10CEAB0005E31247C400007FFF7F007E807DFF7C7F
:10CEBB00FF9005E312478CC31246E5500A9005E339
:10CECB001247C4FFFF80009005E31247808537822D
:0DCEDB00853683EEF0A3EFF09005E7E0FF51
:01CEE8002227
:088CFB008F428E418D408C3F39
:108D0300D3E543648094864003754306C3E5436417
:108D13008094805003E4F543E4FFFEFDFCAB42AADC
:108D230041A940A83F12429E501BAF42AE41AD4005
:108D3300AC3F12430B8F428E418D408C3F90061205
:108D43007401F08005E4900612F0AF4312C87FABC4
:108D530042AA41A940A83F1240F89006281247B8FA
:108D6300E4FFFEFD7C4F90062812478C12429E6062
:108D73000B40097BFF7ADE79C1028E7C90062812B4
:108D8300478012CCD890062C1247B890062C124775
:108D930080EC4D4E4F7004900612F090062C124753
:108DA30080754B06754C1412A7DED3E5436480949B
:108DB300805003028E4612AD99E5439F049006103E
:108DC300F0D36480948040127E067F14A3E0FD906C
:108DD3000610E02DFB7D3012BF6E12AD9990061385
:108DE300E543F0900613E0FFD364809480402BEFBB
:108DF3009543FF900611E02FFF900610F03395E0A6
:108E0300FE74132FF58274063EF583E0FD12ADB2B6
:108E1300EDF0900613E014F080C9AF43EF3395E013
:108E2300FE900611E0FD3395E0FCC3ED9FFFEC9E41
:108E3300FE12ADB2742EF074152DF58274063CF556
:108E430083E4F0900612E060140545E545AE4470F6
:108E530002054414F5828E83742DF08016E5466076
:108E6300120545E545AE447002054414F5828E8330
:108E73007420F07B017A067914AD45AC4412D919FC
:018E830022CC
:08B7AF008F368E358D348C338A
:10B7B70078F87C057D017BFF7ADE79C57E007F0CFA
:10B7C7001244ABE5382415FF75F0031244D1FE90FF
:10B7D70005F6F0EF75F0031244D1AFF09005F7EFDF
:10B7E700F0C3EE648094805005E49005F6F0900570
:10B7F700F6E0D36480948B4003740BF09005F7E078
:10B80700C39538FF12C87FAB36AA35A934A83312BF
:10B8170040F89006041247B8900604124780900536
:10B82700F7E0FBC3E5379B14F543754406754508F8
:10B83700E4F546128CFB12ADBD12D9199005F6E05E
:10B84700FF3395E0FE74F82FF58274053EF583E02B
:10B85700FF6420600E900608EFF0E4A3F012ADBD80
:03B8670012D4B840
:01B86A0022BB
:0AC984008B3C8A3D893E8C3F8D40BC
:10C98E00E4F543854082853F83E0FFC36480F8E58C
:10C99E0043648098500512AD6580E88F4312ADDC7C
:10C9AE00B42007600512AD6580F3E4FF12ADDCFE26
:10C9BE0064206027EE6024C3EF64809489501C7855
:10C9CE003C12ACF6FE0542E542AC41700205411444
:10C9DE00F5828C83EEF005430F80D185428285412E
:0CC9EE0083E4F0854082853F83E543F040
:01C9FA00221A
:109E39003F42414420504152414D2031003F504161
:109E490052414D204F5554204F462052414E4745CF
:109E5900003F42414420504152414D2032002A00E6
:109E69003F42414420434F4D4D414E44003F5543ED
:109E790020002A4655312E3330002A2046552D34EC
:109E890020002050554C5341522D003F4E4F542035
:109E99004143434550544544003F504152414D20B0
:109EA9004552524F520020003F52454144204552ED
:109EB900524F52003F554E444546494E4544204570
:109EC90052524F52003F5752495445204552524F22
:109ED90052003F564552494659204552524F520069
:109EE9003F434845434B53554D204552524F52002D
:109EF9003F4552524F52003F4E4F20484541440082
:109F09003F4E4F54204D4541535552494E472045E8
:109F19004E45524759002A4F564552003F43532058
:109F29004D4F4445204F4646003F4E4F54204D4526
:109F390041535552494E4720534C4F5720444154A1
:0F9F490041204F4E204348414E4E454C000A00E8
:1096D1004B0E0D3F42414420504152414D00500D2F
:1096E100FD0000000000000000000000000000007C
:0C96F10000440DF800000000410DFC00DA
:1089BB00F583E0FF900DFCE0FE04F0EEFD3395E057
:1089CB00FC74C02DF58274E73CF583EFF022AF1BEE
:1089DB00EF3395E0FEEF25E0FFEE33FE229004FA35
:1089EB00742AF0AF1BEF3395E0FEEF7802227A9EEC
:1089FB0079677BFF7CE77D402290053A7403F07B1F
:108A0B00017AE77940227A0479FA7B017CE77D4091
:108A1B0022EF3395E0FE75F042EF1247F5EE75F05D
:108A2B0042A42583F58322D3900DB0E09401900DE1
:108A3B00AFE0940022900578E090057AFFE0FEC34A
:108A4B00EF6480F8EE6480982224DCF582740D3E8E
:108A5B00F583024780AF1BEF3395E0FE74BB2FF518
:108A6B0082740D3EF583E4F022852F82852E83A33D
:108A7B00E0FF7C057D5E227C057D3A7541047542E5
:108A8B00FA22742D2FF582740C3EF5832290057912
:108A9B00E0FF900576E0FCA3E0FDA3E0FB227A9ECD
:108AAB0079AF7BFF7CE77D4022243FF582E434E7FE
:108ABB00F5832290053AEFF0E0229004FA124780FA
:108ACB00E4FF2212466E90056E0247B8900574EED5
:108ADB00F0A3EFF04E223395E0FE74FE2FF5827477
:108AEB00043E22C3900DB0E094022275330174FF53
:108AFB00FBFA22853982853883F090059E227C050E
:108B0B007D9E75410575429F22EF3395E0FEF0A3E4
:108B1B00EFF04E227C057D7B75410575425A227420
:108B2B007C2FF58274053EF5832274D52FF5827464
:108B3B000D3EF5832290059CE0FCA3E0FDD3229033
:108B4B00E740742AF0E4A3F0227BFF7A9E79672238
:0CC7F9008E348F358C368D378A388B39A2
:10C80500853782853683E4F0A3F0128AFE128A0703
:10C81500128B0912C98412C87270037F0122128B10
:10C82500409535EC953440037F0222853782853665
:10C8350083ECF0A3ED128A09128B0912C98412C880
:10C845007270037F0122128B409408EC9400400320
:10C855007F0222ED4C70037F022290059CA3E0121B
:0CC865008AFEE0853B82853A83F07F006C
:0EC87100227E057F9F7C057D9C12A3C7EF22CF
:109424007C057D767A057B78753A05753B7B7F00F4
:109434007E2012C7F9900574128B1460079005748E
:10944400A3E0FF22900576E0FEA3E0FFEE3395E073
:10945400FDFC128AD190056E12478C900578E0FFCE
:109464003395E0FEFDFC128ACEE490057AF0128A70
:10947400405041128A0A128B1F12C98412956E70D1
:10948400037F0122900572E0FCA3E0FD90057AE0E1
:10949400FF1289DC128B2AECF0A3EDF090056E121A
:1094A400478CAF05AE04E4FCFD128ACE90057AE049
:1094B40004F080BA128A0A128B1F12C98412956EA4
:1094C40070037F012290056E124780EFFBEEFAE4F1
:1094D400F9F8900572E0FEA3E0FFE4FCFDC3124638
:1094E400E560037F032290E742E0B44107E490057E
:1094F40079F0801490057BE0FF12D0C4EF70037FF5
:109504000122900579E51BF0128A987532057533AE
:109514007C12BD93128AD760037F0422128A987545
:109524004A05754B8C12C54A128AD760037F0622FE
:10953400E490057AF0128A40502DEEFF1289DC7413
:109544008C2FF58274053EF583E0FCA3E0FD128BBD
:109554002AE0FEA3E06D7002EE6C60037F052290AA
:09956400057AE004F080CE7F00DE
:0E956D00227E057F5A7C057D7212A3C7EF2275
:0CC903008E2E8F2F8C308D318A328B33BA
:10C90F00753A05753B5AAB31AA30AD2FAC2E7F006F
:10C91F007E2012C7F990055C128B14600790055C9E
:10C92F00A3E0FF2290E742E0B44107E490055BF0FB
:10C93F00801490055AE0FF12D0C4EF70037F0122DC
:10C94F0090055BE51BF090055BE0FF852F82852E40
:10C95F0083E0FCA3E0FD853182853083E0FB8532E7
:10C96F004A85334B12C54A90055C128ADA60037F01
:04C97F0006227F000D
:01C983002291
:02A5D5008F2EC7
:10A5D70012DE3B90055DEFF06018AF2E1289DB129B
:10A5E7008B35E4F0A304F0128E847F0A12DD451246
:10A5F700DF4253A0F7AF2E12D8127F2212DBC09092
:10A60700055AEEF0A3EFF0BE4A09BF4E06A3740148
:10A61700F08005E490055CF090055CE0600D7F2814
:10A6270012DF1B43A0087F2812DF1BE4FFFEFDE5B6
:10A637002F781812A6D2E4FFFEE530FDE478101259
:10A64700A6D2E4FFE531FEE4FDFC780812470C12C0
:10A65700CEE9E532FFE412CEE990055CE0600853ED
:10A66700A0F77F2812DF1B43A0087F2812DF1B53A8
:10A67700A0F7E4FF12D81290055DE0601E7F0A1272
:10A68700DD4590055DE0FD3395E0FCAF2E1289DBDB
:10A69700128B35ECF0A3EDF0128E84AF32AE31ADF4
:10A6A70030AC2FC004C005C006C007AF2E1289F01A
:10A6B700C333CE33CED8F924F9F582740D3EF58332
:0BA6C700D007D006D005D0040247B831
:08A6D200FC12470C12CEE92234
:0A981A008E2E8F2F8D308A318B3295
:1098240090056C128A077C057D6C75410575425E56
:1098340012C9847E057F5E12DE2790055BEFF0700F
:1098440008A304F0E4A3F0806C7E057F5E7C057DB4
:109854006D12A3C790055AEFF0601390056DE07088
:1098640002A3E0700990055C04F0A3F08047900522
:109874005AE07009A3E0D364809480500B90055B98
:10988400E0D36480948440087BFF7A9E79398040D9
:1098940090055AE06017D390056EE0953290056DFF
:1098A400E0953140087BFF7A9E79468023E4900559
:1098B4005CF0A304F090055DE0601FE530601B9050
:1098C400056CE0FF12D0C4EF70107BFF7A9E795ACA
:1098D4007CE77D4012D9197F0022E530601BAF1B65
:1098E400EF3395E0FEEF24FFFFEE34FF1289DFEF44
:1098F400252FF52FEE352EF52E1289F912D9199050
:10990400055CE0701C90056DE0FFA3E0852F828567
:109914002E83CFF0A3EFF0E5336003128E847F0231
:1099240022C3E5329410E53194005008128A74126F
:10993400D9D4801DC3E53194015008128A7412D31E
:1099440014800E852F82852E83E0FE128A7A12CD32
:0D995400B67A05795E128A1512D4B87F012B
:0199610022E3
:107B5200900E28E02440F582E434E7F583E4F07ED9
:107B6200E77F4012ABD990E740E0642460037FCB0B
:107B720022900E28E0FE128AB4E0640A60037FCCF1
:107B820022900E28E0FF128AB4E4F0743E2FF582B0
:107B9200E434E7F583E0C39420500C743E2EF58262
:107BA200E434E7F583E4F090E741E0C39420401326
:107BB200E0D3947F500DA3E0C394204006E0D39419
:107BC2007F40037FCA2290E741E0FEA3E0FDED8EF5
:107BD200F01248607C8C43467CA7434C7C71435333
:107BE2007D5546447C9E46537C8347467C5648508E
:107BF2007CE548537C7A49497CB049587CB94D535D
:107C02007D1552417D0552427C6852457CED5252AF
:107C12007D2553417D3D53457D3553507D1D535246
:107C22007D2D53537CDD54577C5F56457D0D574166
:107C32007CFD57427CF557527CC2584D7CD4584F3C
:107C42007CCB58547D4558587D4D58597C955A588F
:107C520000007D5D9004FA740BF0027D639004FADB
:107C6200740CF0027D639004FA7420F0027D63903C
:107C720004FA740DF0027D639004FA7418F0027D28
:107C8200639004FA7419F0027D639004FA7421F08F
:107C9200027D639004FA7412F0027D639004FA7418
:107CA20025F0027D639004FA7422F0027D63900451
:107CB200FA7411F0027D639004FA741AF0027D6383
:107CC2009004FA741BF0027D639004FA741DF002B2
:107CD2007D639004FA740EF0027D639004FA741EC0
:107CE200F0807E9004FA741FF080769004FA741388
:107CF200F0806E9004FA7414F080669004FA7415A1
:107D0200F0805E9004FA7417F080569004FA740FB3
:107D1200F0804E9004FA7416F080469004FA7409CA
:107D2200F0803E9004FA740AF080369004FA742AC5
:107D3200F0802E9004FA742BF080269004FA742CB2
:107D4200F0801E9004FA7426F080169004FA7427CC
:107D5200F0800E9004FA7428F080069004FA74C938
:107D6200F09004FAE024F6600A24E024FD50042492
:107D72002470137F0312D0C4C3EF64809481500631
:107D82009004FA74CDF09004FAE0B4C90812881A8B
:0A7D92009004FAEFF09004FAE0FF0D
:017D9C0022C4
:025882008F2D68
:10588400900E28E0128AB4E4F0E52D12483A5C0D3B
:10589400095C0D0A59210B59230C59C40D5E6E0E77
:1058A4005B6D0F5A48115EA0125A4F135A70145B65
:1058B4006D155ACB165ACB17592C18596B195E1DF6
:1058C4001A5E261B5E4B1D5E311E5BD61F5962207D
:1058D4005982215A16225D92265DD5275E7D285C69
:1058E4000D2A5C0D2B5C0D2C5905C958FCCA58FCBB
:1058F400CB58FCCC00005EB07BFF7A9E7969025BDA
:10590400D390E741E09004FAF090E742E09004FB82
:10591400F0E4A3F07BFF7A9E7976025A6680427B9C
:10592400FF7A9E797B025BD37C057D407F407E00BD
:1059340012D176125F007A9E79831289FD12D919E9
:10594400128A1112D4B87A9E798B128AAD12D4B805
:1059540012D6F5128ABE24309004FA025CEE750861
:1059640001128B4A025EB512D7A490053CEEF0A357
:10597400EFF090053C125F1A128B4A025E14128AF1
:1059840004128A8212C9847E047FFA7C057D3C124B
:10599400A3C7128ABE602690053CE064077004A386
:1059A400E06477701812D06A128ABE7BFFB40106D5
:1059B4007A9E796780047A9E7994025BD3025DDDD6
:1059C4007E0D7FAFE4F5337B03FAFD125F106402B2
:1059D4006003025EB5128A32400DE4900DF8F0A324
:1059E400F0A3F0A3F0A3F012D730128A32400A7D5C
:1059F40001E4FF12DD79128A60128AEE128A3940BC
:105A040003025EB57F1412DF1B12DF4212DEAF0207
:105A14005EB590053A7403F0E0FF12D0C4900549D6
:105A2400EFF070087BFF7A9E79A280159004FA74D7
:105A34002AF0E51B2430A3F0E4A3F07B017A047977
:105A4400FA025BD37E0D7FCC025E727F0312D0C458
:105A5400EF7003025DDD1289D9128A8D125F1A126A
:105A64008B547CE77D4012D919025E14128A041209
:105A74008A8212C9847E047FFA7C057D3B12C4BAF3
:105A8400900549EFF0600B90053BE0D36480948F60
:105A94004003025DDD125F397003025DDD1289F996
:105AA40012D91990053BE0FDFB3395E0FA1289D930
:105AB400128A8DEAF0A3EBF0AF1B12C00A7D02AF8D
:105AC4001B12DD79025EB57E057F3E7C057D487A3A
:105AD400057B4A12C903128ABE70661289F912D96B
:105AE4001990053E125F2C128A1112D4B8128AA999
:105AF40012D4B8900548E0540FFF7C047DFA12D903
:105B0400D4128A1112D4B8E490053BF0900548E011
:105B140090053B128A474003025EB5EEFF1289DC12
:105B2400744A2FF58274053EF583125F2C128AA9FC
:105B340012D4B8128A1112D4B890053BE004F08054
:105B4400CB90053AE0B40602804A90053AE0B401ED
:105B540003025DDD90053AE07BFFB402067A9E798C
:105B64004680047A9E79BD8066129424128ABE709F
:105B740003025E9490053AE0B40103025DDD9005F2
:105B84003AE0B402087BFF7A9E7946804290053A57
:105B9400E0B406087BFF7A9E79B1803390053AE041
:105BA400B404097BFF7A9E79CE025D8F90053AE0BA
:105BB400B405097BFF7A9E79DB025D8F90053AE09C
:105BC4007BFFB403067A9E79E980047A9E79F90210
:105BD4005D8F7E0D7FD77533017B3F7A007D011287
:105BE4005F1064026003025EB5AF1B12DE3BEF6020
:105BF40005AF1B12DC6FAF1B12DB9CEF7003025E60
:105C0400B5AF1B12DE9C025EB5AF1B12DB9CEF70BE
:105C140003025D7B128A325003025D7B128A60E5C7
:105C24002D6409701F1289F912D9191289EEC33330
:105C3400CE33CED8F9128A54754B04754CFA12A798
:105C4400DE025E14E52D640A6009E52D642A600312
:105C5400025CF51289F912D919E52DB40A121289D8
:105C6400EEC333CE33CED8F92477F582740D801089
:105C74001289EEC333CE33CED8F92457F582740D8E
:105C8400128A5A9005441247B81289D9128A8DA3F0
:105C9400E090053AF0E0FF1289F1C333CE33CED859
:105CA400F92437F582740C128A5A90054412478CF1
:105CB4001240F812435A9005401247B8125F00127E
:105CC4008A1112D4B89004FA7445F0A3742DF0A389
:105CD4007431F090053AE0FF3395E0FE74052FF53A
:105CE40082740C3EF583E09004FDF0E4A3F0025EC0
:105CF40014E52D642B7027AF1B12DDD2EF70097BE6
:105D0400FF7A9F7900025D8F1289E8C333CE33CEC8
:105D1400D8F92467F582740D125ED4025D8FE52DE7
:105D2400642C6003025EB5AF1B12DA58EF70097B76
:105D3400FF7A9F7909025D8FAF1B900A77128A1C44
:105D4400E4F0900A78128A21E0700E900A72128AA6
:105D54001CE0D36480948040087BFF7A9F791F8085
:105D64002A1289E8C333CE33CED8F9247DF5827460
:105D74000B125ED4025E97128AEE128A397BFF50B0
:105D8400067A9F792580047A9F7932025E97128A77
:105D940004128A8212C9847E047FFA7C057D401233
:105DA400AADF900549EFF07002802E125F39700867
:105DB4007B017A0E790D80169005401247808F3250
:105DC4008E318D308C2FAF1B12A5D5128B54025EF1
:105DD400977F0312D0C4EF70097B017A0E790D020C
:105DE4005E971289EEC333CE33CED8F924F9F58207
:105DF400740D128A5A9005401247B8900540124714
:105E0400807532047533FA12CBED1289F912D9195F
:105E1400128A1112D4B8025EB57E0D7FB3128AF6CF
:105E240080537E0D7FF4128AF6E4025EAA7E0D7F13
:105E3400D5128AF6125EF464027076900DD5E0FCF9
:105E4400A3E0FD7F04801C7E0D7FCA7533017B0FA8
:105E54007A00125EF464027058900DCAE0FCA3E06C
:105E6400FD7F057E0012D27980477E0D7FC2753397
:105E7400017B027A007D01802E90E743E0B4310873
:105E8400900DBB7401F08005E4900DBBF0128E847C
:105E9400128B547CE77D4012D91980157E0D7FC08A
:105EA400E4F5337B09FAFD12981A8005AF2D1251DF
:105EB400AB7BFF7A9F79567CE77D4012D4B8E4909F
:0F5EC400E68AF07EE77F4012DE2790E68BEFF054
:105ED300223EF5831247808F3C8E3B8D3A8C397579
:105EE3003D04753EFBAF1B12AFA77B017A0479FA21
:105EF30022E4FD12981A90053AEFF0E02290054053
:105F0300124780754B04754CFA12A7DE2212981AB9
:105F130090053AEFF0E022E0FEA3E0FFE4FCFD751C
:105F23004B04754CFA12A7DE22E0FEA3E0FF7C04CB
:105F33007DFA12CDB62290053AE0FF12D0C4EF22CB
:0CDF42004380027F0512DF1B5380FD228C
:10DEAF00900DFCE090E68FF0E4900DFCF0900E2BBF
:02DEBF00F0224F
:02A6DA008F32BD
:10A6DC00E4F533FB7A00793212DCB0128AEE128A7E
:10A6EC0039500302A7DD900DC0E0FAA3E0FBD39430
:10A6FC0001EA9400500302A794AF321289F0C333DD
:10A70C00CE33CED8F9128A549004FA1247B8EBC45F
:10A71C00F8540FC868FF8F33E532FB3395E0FA74B9
:10A72C00F72BF582740D3AF583E004F090E6A2E085
:10A73C0030E10302A7DD9004FA1247801289BF12A0
:10A74C008AC5E4FDFC780812471F1289BF128AC51E
:10A75C00FEE4FC781012471F1289BF128AC5FEFD59
:10A76C00EC781812470C1289BFE53345321289BEBA
:10A77C0074F72BF582740D3A1289BB900DFCE0C373
:10A78C00648094BB404B80467C047DFEAF321292B9
:10A79C00C2EF603DE4900512F0900512E0FF128AC2
:10A7AC00E1F583E0600F900512E004F0EF128AE10E
:10A7BC001289BB80E4900DFCE0FF04F0EF3395E0D0
:10A7CC00FE74C02FF58274E73EF583740AF012DE36
:01A7DC00AFCD
:01A7DD002259
:10DA000090E682E030E004E020E60B90E682E03031
:10DA1000E119E030E71590E680E04401F07F147EE4
:0CDA20000012D3A590E680E054FEF02236
:10DB770090E682E044C0F090E681F0438701000020
:04DB87000000002278
:10D9490030040990E680E0440AF0800790E680E020
:10D959004408F07FDC7E0512D3A590E65D74FFF0E4
:0FD9690090E65FF05391EF90E680E054F7F022E4
:02DA2C00A90748
:10DA2E00AE17AF188F828E83A3E064037017AD011B
:10DA3E0019ED7001228F828E83E07C002FFDEC3E6B
:09DA4E00FEAF0580DF7E007F00C1
:01DA570022AC
:10D3A5008E2D8F2E90E600E054187012E52E240184
:10D3B500FFE4352DC313F52DEF13F52E801590E6FB
:10D3C50000E05418FFBF100BE52E25E0F52EE52DE6
:10D3D50033F52DE52E152EAE2D7002152D4E60055B
:06D3E50012DB8B80EE223A
:10DB8B007400F58690FDA57C05A3E582458370F9AD
:01DB9B002267
:1096FD00410DBB00410DDF00420DAF0001420DB128
:07970D000002420DC0000143
:10D63B00EF3395E0FEEF25E0FFEE33FE74D52FF5CB
:10D64B0082740D3EF583A3E022A3E0FF02C66FE4D4
:10D65B00F0A37464F0229005CBE04401F022900516
:0ED66B00CBE04402F0229004FA124780E42241
:10D06A0053B1EF7F0512DF1B43B110E490055AF06C
:10D07A00A3F0E5B120E60CE490055CF07F0112DD37
:10D08A0045800690055C7401F090055AE475F0013C
:10D09A00124593C390055BE094E890055AE06480DA
:10D0AA009483500690055CE060C8900DF01247C466
:09D0BA000000000090055CE0FF9D
:01D0C300224A
:10DC4E00EF30E00543A002800353A0FDEF30E10565
:10DC5E0043A004800353A0FB7F0112DF1B53A07F60
:01DC6E002293
:0BC66400A3E0FF12C66F9005CBE0FFC3
:10C66F00E5A054F9FE4402FDEF540170048EA08042
:10C67F00028DA043A004EF540270048EA080028D9F
:10C68F00A043A004EF540470048EA080028DA04339
:10C69F00A004EF540870048EA080028DA043A00464
:10C6AF00EF541070048EA080028DA043A004EF54AD
:10C6BF002070048EA080028DA043A004EF54407020
:10C6CF00048EA080028DA043A004EF548070048ECE
:0BC6DF00A080028DA043A00453A0FB2C
:01C6EA00222D
:07DF7C0043A08053A0F9222D
:0FDEE1008F347F0212DC4EAF3412C66F02DF7C2B
:02CAFF008F3472
:10CB01007F0112DC4EE4F53CF53BF53AF539753819
:10CB110001F537F536F5357F0112DF1BE53414FBDE
:10CB2100C3EB64809480403E43A00453A0FBE5A086
:10CB310030E01BE53C4538FFE53B4537FEE53A452E
:10CB410036FDE53945358F3C8E3B8D3AF539AF38A9
:10CB5100AE37AD36AC3578011247338F388E378D0D
:10CB6100368C351B80BA43A08053A0F9AF3CAE3B55
:04CB7100AD3AAC39F4
:01CB7500229D
:10D73000900DB1E07004A3E064027005752E0180C5
:10D7400003E4F52ED3900DB0E09401900DAFE0947A
:10D75000004008900DD47480F08005E4900DD4F062
:0AD76000900DD4E0452EFF02DEE13B
:10DB5100900DB1E07004A3E06402700790055A04CF
:10DB6100F08005E490055AF0900DD4E0FF90055A3D
:06DB7100E04FFF02DEE1BF
:10D7A4007F0712DEE17F2012CAFF8F318E308D2F6A
:10D7B4008C2EE48E328F33FFFEE52E781012470C48
:10D7C400EF64137003EE640F6005E4F532F5331271
:06D7D400DB51AE32AF3361
:01D7DA00222C
:10B160007F1C12CAFF9004FA1247B8E4FF12DC4EAB
:10B170007F0512DF1B12DF7C12D671FFFEFDEC543F
:10B180000FFC781812470C9004FEEFF07B017A0454
:10B1900079FE12DCB012D671FC9004FA1247B81294
:10B1A000D67112431C8F308E2F8D2E8C2D900DDF7B
:10B1B000E0D3940040087B027A7B794C800EAF305C
:10B1C000AE2FAD2EAC2D7BAC7A6379AA783F1240BE
:10B1D000F88F308E2F8D2E8C2DE4FFFEFD7C3FAB43
:10B1E00030AA2FA92EA82D12400712435AC004C01E
:10B1F00005C006C0079004FEE0FBFF3395E0FEEFBC
:10B200007802C333CE33CED8F924DCF582740D3EF8
:10B21000F583D007D006D005D0041247B8EBFF3332
:10B2200095E0FE74BB2FF582740D3EF5837401F03A
:05B230009004FEE0FFA8
:01B2350022F6
:108E8400900DB3E07002A3E07007900DB3F0A3045B
:108E9400F0900DB5E07002A3E07007900DB5F0A35B
:108EA40004F0900DB7E07002A3E07007900DB7F0E6
:108EB400A304F0900DB9E07002A3E07007900DB91F
:108EC400F0A304F0E4FF12DC4EE49005CBF0900D27
:108ED400C2E07004A3E06402700312D661900DCC6A
:108EE400E07004A3E06402700312D669900DB3121B
:108EF400D654900DB3E0FF12C66F900DD712C6641E
:108F0400E4F0900DC4E07004A3E06402700312D690
:108F140061900DCEE07004A3E06402700312D66980
:108F2400900DB512D654900DB5E0FF12C66F900D9A
:108F3400D912C664E4F0900DC6E07004A3E06402A4
:108F4400700312D661900DD0E07004A3E064027047
:108F54000312D669900DB712D654900DB7E0FF12E4
:108F6400C66F900DDB12C664E4F0900DC8E0700487
:108F7400A3E06402700312D661900DD2E07004A3E2
:108F8400E06402700312D669900DB912D654900DA4
:108F9400B9E0FF12C66F900DDD12C664900DD512B4
:108FA400D654900DD5E0FF12C66F900DF412D6542E
:108FB400900DF4E0A3FF12C66FA312D654900DF6E1
:108FC400E0FF12C66F900DDFE0D3940040087534C3
:108FD400007535808005E4F534F535900DCAA3E0BD
:108FE4004535FF12C66F900DBBE0FF12C66F02DF5E
:018FF4007C00
:10BCF400900DB312D65A900DD7E4F0A304F0900D32
:10BD0400C2E4F0A304F0900DCCE4F0A304F0900D91
:10BD1400B512D65A900DD9E4F0A304F0900DC4E402
:10BD2400F0A304F0900DCEE4F0A304F0900DB7124C
:10BD3400D65A900DDBE4F0A304F0900DC6E4F0A312
:10BD440004F0900DD0E4F0A304F0900DB912D65A8B
:10BD5400900DDDE4F0A304F0900DC8E4F0A304F02A
:10BD6400900DD2E4F0A304F0900DD512D65A900DA4
:10BD7400F412D65AA3E4F0A37480F0900DCAE4F050
:0FBD8400A37402F0900DF01247C40000000022DB
:02DB9C008F34C4
:10DB9E007B007A00793412DCB0AF3412D63B24FB12
:10DBAE00600A24F524FC5004241070037F01227FA8
:01DBBE000066
:01DBBF002243
:10DE3B0012D63BFF24FD600824F96004240870010E
:03DE4B00227F0033
:01DE4E0022B1
:10DD9000AA06A9077B01124831E42274402FF582BC
:06DDA000E434E7F58322E4
:10D7DB00EDD3941040027D109004FB12DD90900469
:10D7EB00FAF09004FAE0FFC39D501B12DD9BE0FFA3
:10D7FB009004FBE475F00112481AEF1245399004BE
:06D80B00FAE004F080DCED
:01D8110022F4
:10D57E00EDD3941040027D109004FB12DD909004C8
:10D58E00FAF09004FAE0FFC39D5019A3E475F00180
:10D59E0012481A1244F3FE12DD9BEEF09004FAE0EC
:0ED5AE0004F080DEE490E68AF090E68BEDF06B
:01D5BC00224C
:0EDF0D007B007A00794E12DAAFAD07E54E22A6
:10DD0D0090E678E04440F07F107E27EF1F70011EF3
:0BDD1D0090E678E030E604EF4E70F076
:01DD280022D8
:10D35E0090E679EFF07FD07E07EF1F70011E90E60A
:10D36E0078E020E00BD3EF9400EE6480948050E9D7
:10D37E0090E678E020E0037F012290E678E030E24C
:10D38E000612DD0D7F022290E678E020E10612DD26
:06D39E000D7F03227F0059
:01D3A4002266
:10DAAF0090E679E0FF7EFF1E90E678E020E003EE3F
:10DABF0070F590E678E030E20B12DD0D740112453F
:08DACF00397F0022E412453901
:01DAD700222C
:04D84900AD07AC0675
:10D84D0090E678E04480F0D3ED94FFEC940740032C
:10D85D00530407AF04EF25E044A0FF12D35EEF6041
:10D86D000122AF0512D35EEF6005E42405FF227F90
:01D87D0000AA
:01D87E002287
:04CA80008C4C8D4D00
:10CA84008D828C83E4F0A3F0EF25E0FFEE33AB0757
:10CA9400FAFE12D8498F4EE54E60037E002290E6DE
:10CAA40078E04480F0D3EB94FFEA94074003530208
:10CAB40007AF02EF25E044A1FF12D35EEF60057ECD
:10CAC400507F012212DF0D60057E507F022290E626
:10CAD40078E04420F012DF0D60057E507F03229041
:10CAE400E678E04440F090E679E0FFED854D8285FC
:0ACAF4004C83CFF0A3EFF0E4FEFF47
:01CAFE002215
:04D27900AB05AA0453
:10D27D00EF25E0FFEE33FE12D849AD07ED60037EDA
:10D28D000022AF0312D35EEF60057E007F0622EA17
:10D29D00FF12D35EEF60057E007F072212DD0D7B4E
:10D2AD0064E4FFFE12D849AD071BED6006EBD39485
:0AD2BD000050EE12DD0DAF057E00FB
:01D2C7002244
:04971400410E2B00D7
:10D679005391EF90E65D2290E740F0E490E68AF05E
:10D6890090E68B04F0D322850F82850E83A3740262
:10D69900F022851182851083A37407F02290E61287
:0ED6A90074F8F0227401F05391EF90E65F22C6
:10C6EB0090E600E054E74410F090E60174A3F0905C
:10C6FB00E61074B0F000000090E611F0000000129C
:10C70B00D6A600000090E6137422F000000090E61D
:10C71B00147462F000000090E6157422F090E61895
:10C72B00740CF000000090E680E030E70890E62003
:10C73B007404F08005E490E620F000000090E680A1
:10C74B00E030E707E490E621F0800690E6217440A4
:10C75B00F0000000E490E619F090E61AF090E61B6A
:07C76B00F043AF07D20022EA
:10D22400900E2AE0604EE4F07AE779807EE77F8012
:10D2340074E7F59A7480F59B90E68DE0F52EE4F59D
:10D244002DE52DC3952E500E90E67BE0F52FFF12B1
:10D25400C66F052D80EB900DF012478CAF2EE4FCC9
:10D26400FDFE12466E900DF01247B890E68D748064
:04D27400F0000000C6
:01D278002293
:02DF8F00D3229B
:02DF9100D32299
:02DF9300D32297
:08DF640090E6BAE0F51AD322A1
:06DF8300E51A12D680220F
:08DF6C0090E6BAE0F519D3229A
:06DF8900E51912D680220A
:02DF9500D32295
:02DF9700D32293
:02DF9900D32291
:10DB010090E6B9E0242F600D04701990E604E0FF5F
:10DB1100430780800890E604E0FF53077F00000080
:07DB2100EFF08002D322C3E4
:01DB280022DA
:10DDE800C0E0C083C082D20112D6797401F0D0821B
:05DDF800D083D0E032F1
:10DE6300C0E0C083C08212D6797404F0D082D0831C
:03DE7300D0E032CA
:10DE7600C0E0C083C08212D6797402F0D082D0830B
:03DE8600D0E032B7
:10D5BD00C0E0C083C08285120E85130F12D69085F0
:10D5CD000A10850B1112D69B63B00112D6A600006E
:10D5DD000090E620E4F000000090E6217440F00099
:0FD5ED00000012D6797410F0D082D083D0E032D3
:10DDFD00C0E0C083C082D20312D6797408F0D082FD
:05DE0D00D083D0E032DB
:10D4FB00C0E0C083C08243B002850A0E850B0F12B9
:10D50B00D69085121085131112D69B12D6A6000049
:10D51B000090E6207404F000000090E621E4F00097
:10D52B00000053B0FD12D6797420F0D082D083D096
:02D53B00E032DC
:01C9FF003205
:01DF9B003253
:01DF9C003252
:10DE1200C0E0C083C082900E2912D6AD04F0D08239
:05DE2200D083D0E032C6
:01DF9D003251
:10DDA600C0E0C083C082900E2A12D6AD7408F0D0AF
:06DDB60082D083D0E032B0
:01DF9E003250
:01DF9F00324F
:01DFA000324E
:01DFA100324D
:01DFA200324C
:01DFA300324B
:01DFA400324A
:01DFA5003249
:01DFA6003248
:01DFA7003247
:01DFA8003246
:01DFA9003245
:01DFAA003244
:01DFAB003243
:01DFAC003242
:01DFAD003241
:10DDBC00C0E0C083C0825391BF900E2D7401F0D08F
:06DDCC0082D083D0E0329A
:10DE8900C0E0C083C082900E2BE004F0D082D08322
:03DE9900D0E032A4
:0300430002CA00EE
:0300530002DDBC0F
:03000B0002DE8989
:10CA000002DDE80002DE760002DE630002DDFD00EA
:10CA100002D5BD0002D4FB0002C9FF0002DF9B006B
:10CA200002DF9C0002DE120002DF9D0002DDA60094
:10CA300002DF9E0002DF9F0002DFA00002DFA100F4
:10CA400002DFA20002DF9B0002DFA30002DFA400DE
:10CA500002DFA50002DFA60002DFA70002DFA800B8
:10CA600002DFA90002DF9B0002DF9B0002DF9B00C8
:10CA700002DFAA0002DFAB0002DFAC0002DFAD0084
:02CEE9008F5E5A
:10CEEB00635EFF53A0FBE49007CBF0755F07AF5F6A
:10CEFB007401A807088002C333D8FC9007CCF05507
:10CF0B005E700553A0FD800343A0027F0112DF1B5F
:10CF1B0043A0047F0112DF1B53A0FBE5A030E00E02
:10CF2B009007CBE0FFA3E0FEEF4E9007CBF0155F31
:0FCF3B00C3E55F6480948050B59007CBE0F4FFAE
:01CF4A0022C4
:0FDEF0008F5D43A0107F0A12DF1BAF5D02CEE9EA
:08DF740053A0EF7F0A02DF1B3E
:10D3EB0043A010E49005D4F0A3F0E5A020E0069054
:10D3FB0005D57401F09005D5E0700B7F0112DD456A
:10D40B009005D4E004F09005D5E0700B9005D4E0C6
:10D41B00C36480949940D353A0EF7F0A12DF1B9013
:04D42B0005D5E0FF44
:01D42F0022DA
:0DDF28007F0412DEF07FC012CEE902DF742C
:0DDF35007F0412DEF0E4FF12CEE902DF747B
:06D87F008F5A8C5B8D5CEA
:10D88500C2AF12DF287F0512DEF0AF5A12CEE9E5EE
:10D895005BFF12CEE9AF5C12CEE912DF7412D3EB57
:0FD8A5009005D3EFF012DF35D2AF9005D3E0FF3F
:01D8B4002251
:02DBC0008F4C88
:10DBC2007F0612DEF0AF4C12CEE9E4FF12CEE98FEF
:10DBD2004DE4FF12CEE98F4E12DF74E54DFEE54EA5
:01DBE200FF43
:01DBE300221F
:109718004A0C150000000100020004000860200B3C
:10972800DD400048004C004E00401848184C184EC8
:1097380018402448244C244E24407E487E4C7E4EBB
:109748007E60400B9926C851F32756BB4C27EBA0E7
:10975800DA287A667029101D7D299A79352A28E237
:109768008E2AB424DC2B39C6032BC7D8E42C5AD84C
:10977800C82CE837842D7B917A2E06948A2E938DF7
:10978800F12F1D3AEC60400C3758635FA958635FAE
:10979800A958635FA956B5E62156B5E62156B5E640
:1097A80021551184E7551184E7551184E75368D48E
:1097B800A55368D4A55368D4A551BA43B751BA4341
:1097C800B751BA43B7501502F9500C053535353441
:1097D800343433333332323231313130440BD901FE
:0E97E800010101480B9100000000000000008C
:10D5FC00FFAD40ED3395E0FC75F0A0ED1247F5EC76
:10D60C0075F0A0A42583F583E5822FF582E5833E92
:10D61C00F58302478CAF41EF3395E0FEEF2225E016
:0FD62C0024FBF582E4340BF583EEF0A3EFF0223C
:02D53D008F4518
:10D53F0053A0FB754607AF467401A807088002C3C6
:10D54F0033D8FC9005FAF05545700553A0FD8003C4
:10D55F0043A0027F0F12DF1B43A0047F0F12DF1BBC
:0ED56F0053A0FB1546C3E5466480948050C867
:01D57D00228B
:10D11E0043A02053A0FB53A0BF7F0A12DF1B754212
:10D12E0004AF4212D62325E0FFEE33FE74FB2FF53B
:10D13E0082740B3EF583E0FCA3E0FDECF543EDF5C8
:10D14E0044AF4312D53D7F0A12DF1BAF4412D53DCB
:10D15E007F0A12DF1B1542C3E5426480948150C1E1
:08D16E0043A0407F0A02DF1B11
:02C00A008D4067
:10C00C008F417B007A00794112DCB0E540D3940F6C
:10C01C00400375400FE54025E024DDF582E4340B48
:10C02C00F583E0FEA3E0FFE54112D62AE54125E0C9
:10C03C00242DF582E4340CF583E4F0A3E540F012F2
:10C04C00D11EE54124FFFFE434FFFE7C017D20126C
:10C05C00454BAC06AD07E54075F004A42420FFE584
:10C06C00F03402CF2DCF3CFE9005F4F0A3EFF07C22
:10C07C00057DF612D9789005F2EEF0A3EFF04E7034
:10C08C00189005F6124780E54125E025E0241BF5C4
:09C09C0082E4340CF5831247B86C
:01C0A5002278
:04AECA008F408D41E7
:10AECE007B007A00794012DCB0AF40EF3395E0FEA4
:10AEDE0074D82FF582740B3EF583E0601712D621DD
:10AEEE007802C333CE33CED8F990077912D5FC90C1
:10AEFE000759801512D6217802C333CE33CED8F936
:10AF0E009007B912D5FC90075D75F0A0ED1247F5CC
:10AF1E00EC75F0A0A42583F58312478012400790AC
:10AF2E0005F21247B8AF45AE44AD43AC42EC124306
:10AF3E001C9005F212478C124003C004C005C006D7
:10AF4E00C007AF4012D6237802C333CE33CED8F922
:10AF5E00241BF582740C12D61BD007D006D005D058
:10AF6E00041240F8C004C005C006C00712D62178EE
:10AF7E0002C333CE33CED8F92499F582740B12D690
:10AF8E001BD007D006D005D0041240F89005F6125B
:08AF9E0047B89005F612478048
:01AFA6002288
:10DC6F008F2E7B007A00792E12DCB0900BFBE0FE3A
:10DC7F00A3E0FF5306BF430620E52E12D62A02D19A
:01DC8F001E76
:10D81200EF701B900C19A3E0FF900C17A3E04FFFD1
:10D82200900C1BA3E04FFFA3A3E04F42B12212D6FC
:10D832002325E0FFEE33FE74152FF582740C3EF5BE
:07D8420083A3E0F452B122C0
:10CB7600FF90075BED3395E0FC75F0A0ED1247F5ED
:10CB8600EC75F0A0A42583F583E5822FF582E58375
:10CB96003E2214FFE533FD2402F533E532FC340072
:10CBA600F5328D828C83E0FCA3E0FD22EF3395E025
:10CBB600FE7C017D2012454BEF2460FFE43EFE1C07
:10CBC6007D0202455DE54BFD2402F54BE54AFC344A
:10CBD60000F54A22E0FEA3E0FFC39428EE9400226B
:07CBE600EEF0A3EFF0E422E2
:08C54A008F468C478D488B4998
:10C55200D3E549648094884003754908E49006064F
:10C56200F0900606E0FFC3E5496480F8EF64809826
:10C572005060E546701C0548E548AE477002054725
:10C5820014FF12CBCB12CA80900607EEF0A3EFF095
:10C59200802BAF4612D8127F0512DF1B0548E548F3
:10C5A2007002054714FF12DBC012CBCB8D828C8345
:10C5B20012CBE6900607F0A3F0FF12D812900607FE
:10C5C200E0FEA3E0FF4E600122900606E004F002C6
:05C5D200C563E4FEFF5B
:01C5D7002241
:04D176008C448D4513
:10D17A00EEC313FCEF13FD754A06754B007B02E400
:10D18A00FF12C54A900604EEF0A3EFF0900602E003
:10D19A00FEA3E0FFE4FCFD7810124733A804A905BA
:10D1AA00AA06AB07900600E0FEA3E0FFE4FCFD122E
:10D1BA0046CA8545828544831247B8900604E0FE34
:03D1CA00A3E0FFE0
:01D1CD00223F
:10D6F5007C057D5A7F327E0012CA80C390055BE0AF
:10D70500940190055AE094005005E4F0A304F0D389
:10D7150090055BE0940490055AE094004006E4F01F
:0AD72500A37404F090055AA3E0FF7E
:01D72F0022D7
:10DB29007C047DFA7F387E0012CA80D39004FBE022
:10DB390094019004FAE094004005E4F0A304F09005
:07DB490004FAE0FEA3E0FF77
:01DB500022B2
:08BD93008F2E8C2F8D308B31B7
:10BD9B00D3E531648094884003753108E490059CA9
:10BDAB00F090059CE0FFC3E5316480F8EF64809868
:10BDBB005071E52E701A0530E530AE2F7002052F4D
:10BDCB0012CB9812D27990059DEEF0A3EFF0803E46
:10BDDB00AF2E12D8120530E5307002052F12CB981A
:10BDEB0012D87FEF3395E090059DF0A3EFF090050F
:10BDFB009DE07002A3E06009E490059DF0A3F08044
:10BE0B000890059DE4F0A304F0E4FF12D81290050E
:10BE1B009DE0FEA3E0FF4E60012290059CE004F044
:06BE2B0002BDACE4FEFFC5
:01BE310022EE
:04D978008C428D430D
:10D97C007C057DFA12D1769005FEEEF0A3EFF07BDC
:10D98C00017A0579FA12474685438285428312470C
:09D99C00B89005FEE0FEA3E0FFD7
:01D9A500225F
:02C397008F2DE8
:10C399007B007A00792D12DCB0AF2D12CBB290045C
:10C3A900FA12CBE69004FEF0A3F09004FE12CBDA69
:10C3B9005045EF7802C333CE33CED8F9AD2D12CB29
:10C3C9007612C40340037F00229004FEE0FEA3E03E
:10C3D9007802C333CE33CED8F9FFAD2D9007591269
:10C3E900CB7A12C40340037F00229004FEE475F067
:09C3F9000112459302C3B37F0158
:10C4020022AD82FC9004FAE475F0011245A9AFF066
:10C41200FE12CA809004FCEEF0A3EFF0D3E0940089
:07C422009004FCE0940022ED
:02C0A6008F33D6
:10C0A8007B007A00793312DCB0AF3312CBB2900543
:10C0B800CC12CBE69005D0F0A3F09005D012CBDAE5
:10C0C800504AEF7802C333CE33CED8F9AD3312CB12
:10C0D8007612C11740037F00229005D0E0FEA3E04E
:10C0E8007802C333CE33CED8F9FFAD33ED3395E0C4
:10C0F800FC90075912CB7F12C11740037F00229092
:0EC1080005D0E475F00112459302C0C27F011C
:10C1160022F583E0FCA3E0FD9005CCE475F0011266
:10C1260045A9AFF0FE12D2799005CEEEF0A3EFF05E
:0BC13600D3E094009005CEE0940022BE
:10A4CF00AF45EF3395E0FEEFC4F8540FC868FFEEC9
:10A4DF00C454F048FEAD40ED3395E0FC75F039ED16
:10A4EF001247F575F039ECA42583F583E5822FF536
:10A4FF0082E5833E22FDAC06AF40EF3395E0FE755B
:10A50F00F0FEEF1247F5EE75F0FEA42583F583E517
:10A51F00822DF582E5833CF583E0FDA3E0900509EC
:10A52F00CDF0A3EDF07C007D3902454B3EFA7B0167
:10A53F00AF41EF3395E0FEEFC4F8540FC868FFEE5C
:10A54F00C454F048FE22EF3395E0FE900C3E75F0B8
:10A55F0039EF1247F5EE75F039A42583F5832212F2
:10A56F0047B8AF44AE43AD42AC41221247981240B8
:10A57F00F8E4FBFA79807847024201FFED3395E06A
:10A58F00FC9000A2ED75F0FE0247F5AF41EF339559
:10A59F00E0FEEF7803228F3A8E398D388C37229078
:10A5AF00050B02481175430075440075453722AB02
:10A5BF0043AA44A94522AB42AA43A9440247468570
:06A5CF004882854783224B
:06A193008F408D418B425C
:10A19900D3E541648094844006E4FFFEFDFC22E59A
:10A1A900417020AF40EF3395E0FE9000A8EF12A573
:10A1B90094EE75F0FEA4258312A526743F2FF97439
:10A1C9000C8026E541B40428AF40EF3395E0FE90BA
:10A1D90000F275F0FEEF1247F5EE75F0FEA4258347
:10A1E90012A52674432FF9740C3EFA7B0102A23F93
:10A1F900E5426401702112A59AC333CE33CED8F952
:10A209009000A612A50474372FF9740C12A53BE926
:10A219002FF9EA3EFA801F12A59AC333CE33CED85E
:10A22900F99000A812A504743B2FF9740C12A53BF0
:10A23900E92FF9EA3EFAA3124831900509E07002C4
:10A24900A3E0701112A5BE12474612A5AE124766C9
:10A2590012A5BE804D900509E0FCA3E0FDC3E49D75
:10A26900FEE49C900507F0A3CEF0E412432112A569
:10A27900AE12A57AC004C005C006C007900507E064
:10A28900FCA3E0FDE412432112A5BE12A57AD00376
:10A29900D002D001D00012400712A5AE12476612B3
:05A2A900A5AE124746BE
:01A2AE00228D
:0AA8DF008F408D418B428A4389446B
:10A8E900C3E5416480948150028009D3E5416480C5
:10A8F90094834006E4FFFEFDFC22E541FB3395E02D
:10A90900FAEBAE027803C333CE33CED8F9AD401299
:10A91900A58A75F0FE12A4F5F5831247809004FE0E
:10A929001247B8EBC4F8540FC868FFEAC454F0489A
:10A93900FEAD40ED3395E0FC900C3F12A4EBAB82E9
:10A94900F5478B48900C4312A4EBAF82F5458F462F
:10A9590012A5C5E4FBFA794078401240F8C004C05A
:10A9690005C006C00712A5CE124780E4FBFA79801C
:10A9790078401240F8A804A905AA06AB07D007D069
:10A9890006D005D0041240038546828545831247C7
:10A999008C124007C004C005C006C0079004FE120F
:10A9A9004780EC12431CD003D002D001D00012A57D
:10A9B9007D9004FA1247B812A5CE124780854682C7
:10A9C9008545831247B812A5C512A5CE1247B8907E
:05A9D90004FA124780A2
:01A9DE002256
:02B306008F4076
:10B308007B007A00794012DCB012A571AB40EB33B8
:10B3180095E0FA900C3F75F039EB1247F5EA12A563
:10B328006512A56E900C4375F039EB1247F5EA12D9
:10B33800A5651247B8E4F54512A571C004C005C05B
:10B3480006C007900C4712A4CFF583D007D006D0CB
:10B3580005D00412A56EC004C005C006C007900C35
:10B368004B12A4CFF583D007D006D005D00412A580
:10B378006EC004C005C006C007AF4512A541AD4068
:10B38800ED3395E0FC900C4F12A4EBF583D007D079
:10B3980006D005D00412A56EC004C005C006C007BB
:10B3A800AF4512A541AD40ED3395E0FC900C53122A
:10B3B800A4EBF583D007D006D005D0041247B80512
:0AB3C80045E5456403600302B3404D
:01B3D2002258
:02ADE5008F32AB
:10ADE7007B007A00793212DCB0AF3212DBE4EF700D
:10ADF700028022AF3212A555E0C364809483501EAF
:10AE070012A55AE004F085364485354385344285DA
:10AE1700334112B306AF36AE35AD34AC3322853687
:10AE27003A85353985343885333712A5B47B01E443
:10AE3700FDAF3212A19312A5A5753F01AF3F12A531
:10AE47009CC333CE33CED8F9AD3212A58AEC75F058
:10AE5700FE12A4F6F583124780E4FBFAF9F8C31251
:10AE670046FB603B853A3E85393D85383C85373B17
:10AE77008B4312A5B70B12AEBA12A5B47B0212AE62
:10AE8700BA7B007A007937AD3FAF3212A8DF12A53F
:10AE9700A5AB3EAA3DA93CA83B12400712A5A505B4
:10AEA7003FD3E53F648094834092AF3AAE39AD38E3
:02AEB700AC37B6
:10AEB90022AD3FAF3212A1938F3A8E398D388C373C
:01AEC9002266
:10DE9C008F357B007A00793512DCB0AF3512A55581
:03DEAC00E4F0227D
:10DE4F00752D01AF2D12DE9C052DD3E52D64809429
:03DE5F008440F00C
:01DE6200229D
:10D430001246D78F4F8E4E8D4D8C4C22AF4CAE4B3B
:10D44000AD4AAC49E4FBFA79207841228F4A8E49F3
:10D450008D488C4722AF4AAE49AD48AC4722AB4A13
:10D46000AA49A948A84702429EE5476480F8E548D2
:04D47000648098221A
:02C87F008F47E1
:10C88100E5477007FFFE7D807C3F22D3E54764804A
:10C89100946250097F607E427DA27C0D22C3E547F0
:10C8A1006480949E40097FCA7EF27D497C7122E4B6
:10C8B100F54CF54B754A8075493FD3E54764809443
:10C8C10080401BE4F548C312D469502D12D43C12A8
:10C8D10040F88F4C8E4B8D4A8C49054880E8E4F531
:10C8E10048D312D469401212D43C1242018F4C8EAB
:10C8F1004B8D4A8C49154880E8AF4CAE4BAD4AACE4
:01C9010049EC
:01C902002212
:02CE24008F3C41
:10CE2600D3E53C648094805007E47F01FEFDFC223C
:10CE3600C3E53C6480948940097F007ECA7D9A7C64
:10CE46003B22E4754101F540F53FF53EF53DC3E56E
:10CE56003C6480F8E53D648098501DAF41AE40AD1E
:10CE66003FAC3EE47B0AFAF9F812467B8F418E40CE
:10CE76008D3F8C3E053D80D6AF41AE40AD3FAC3ECA
:01CE86002289
:10D8B500EF4E601BAD07AC06E4124321E4FBFAF919
:10D8C50078471242018F458E448D438C42800BE48C
:10D8D500F545F54475438075423FAF45AE44AD43CC
:02D8E500AC4253
:01D8E700221E
:03CCD80012D44C27
:10CCDB00E4FFFEFDFC12D45E500E754B0112D455D1
:10CCEB0012430B12D44C8003E4F54B12D455E4FBE6
:10CCFB00FAF9783F12400712D44CE4FFFEFD7C4F4B
:10CD0B0012D45E601E401C74FFF54FF54EF54D7549
:10CD1B004C7FE54B601DAF4FAE4EAD4DAC4C12D4BE
:10CD2B0030801012D45512435A12D433E54B6003A2
:0BCD3B0012D430AF4FAE4EAD4DAC4CEB
:01CD460022CA
:10DCB0001244F3C3648094815005740112453912F3
:0FDCC00044F3D3648094844005740412453922E0
:0CDF4E004E4F4845414420202020200078
:106D500075F0FEEF1247F5EE75F0FEA42583F5837E
:106D6000A3E014FD90001975F0FEEF1247F5EE75E3
:106D7000F0FEA42583F583EDF0900019EF3395E044
:106D8000FE75F0FEEF1247F5EE75F0FEA42583F5D3
:106D900083229005CBE0C313FEA3E013FFE9FD338C
:106DA00095E0FCEF2DFFEE3CFEEF25E0FFEE33FE1D
:106DB000AD30ED9000023395E0FCED75F0FE02473A
:106DC000F5CF3400AB43AA44A9458F82F583124521
:106DD0000CFFE546FD3395E0FC9007CCE02DFD90DF
:106DE00007CBE03CFCE541FB9000023395E0FA75EF
:106DF000F0FEEB1247F5EA222FF582E43EF583AB75
:106E000043AA44A9451245EAFAEAFCAF46EF339596
:106E1000E0FEEF25E0FFEE33FE22E5822FF582E56E
:106E2000833EF583222FF58274013EF583AB42AA9F
:106E300043A9441245EAFDACF0E54625E0FFE545EF
:106E400033FE22E5822DF582E5833CF583EFF022C7
:106E5000C3747E9400FE74019401F0A3CEF0E4228A
:106E6000C3742A9400FE74019401F0A3CEF0E422CE
:106E7000E54725E0FFE54633FE74362FF582E43E14
:106E8000F58322E0FCA3E0FAECFFEAFE22C3741EC5
:106E90009400FE74019401F0A3CEF022C3743A94DE
:106EA00000FE74019401F0A3CEF0E422AF41EF3371
:106EB00095E0FE22C374989400FE74019401F0A33F
:106EC000CEF0E422FF9007CDE034008F82F58312EC
:106ED000450CFF22ECF0A3EDF00546E546229401B7
:106EE0009007CFF0CEA3F0E4F545F54622E5452422
:106EF00014F582E43544F58322FFAD41ED3395E08E
:106F0000FC229007D0E02FFF9007CFE03EFEE54146
:106F100022AF41EF3395E0FE22FAE5F0FFEAFCEF05
:106F2000FDE0C313FEA3E0132275F007E546124708
:106F3000F5E54575F007A42583F58322AB42AA4306
:106F4000A944229007D0E02546FD9007CFE03545C3
:106F5000FCE54122AF46EF3395E0FE229401900517
:106F6000CBF0A3CEF0E49005D1F022AA44EC124677
:106F7000410546E54622AB43AA44A94512450CFF0C
:106F8000E546FD3395E0FCE541FB3395E0FA22ABA5
:106F900041EB3395E0FA22E0FCA3E0FDECFBED22AF
:106FA0007480F0A3E4F02212450CFFE5413395E034
:106FB000FC223EFA7B0178487C007D007E007F0E3B
:106FC0000244AB14FFE541FD3395E0FC22EDF0EF08
:106FD0003395E0FE22AB43AA44A94522EF3395E066
:106FE000FE74D82FF582740B3EF583229005D1E014
:106FF00004F022AF30EF3395E0FE22FEEBFFAD410F
:10700000ED3395E0FC22F0854582854483223EF5F0
:1070100083ECF0A3EDF022124780E4FFFEEC781041
:1070200002470CFF3395E0FEE5462FFFE5453E2283
:107030009007CEE02FFF9007CDE03ECF22EE9005E7
:10704000CDF0A3EFF022124780E4FDFC7810024758
:10705000339007CFE0FCA3E022E02401FDE433FC01
:10706000227C007DFE02454BECF0A3EDF0054622AC
:107070009007CBE0FCA3E022AF39EF3395E0FE228E
:10708000E541FD3395E0FC90004122E546AE4578B0
:1070900003223395E0FAEF2BFFEE3A22AB41AA42EE
:1070A000A94322E0FEA3E0FF12DC08EF229005CD09
:0770B000EEF0FCA3EFF0225B
:10DC0800EF8EF0124860DC224E4ADC225059DC22AA
:10DC18005349DC2254480000DC267D018002E4FDE3
:02DC2800AF0546
:01DC2A0022D7
:10DBE4008F5A7B007A00795A12DCB0AF5A90001633
:10DBF400126D7CE0FEA3E0FFBE5406BF48037F0124
:04DC0400227F002259
:10DAD8008F5A7B007A00795A12DCB0AF5AEF33952F
:10DAE800E0FE900016126D81E0FEA3E0FFBE530633
:09DAF800BF49037F01227F0022D7
:10DDD2008F4012DBE4EF7008AF4012DAD8EF600335
:06DDE2007F01227F0022F8
:10D1CE00EFFD900019126DB6EC126D89E025E0248A
:10D1DE004AF8E6FA08E64A703C900019126DBAEC6D
:10D1EE00126D89E4F0FEEE25E0244AF8E6FC08E62E
:10D1FE00D39400EC94004014EFFD3395E0FC9000C6
:10D20E0019126DBAEC126D89EEF07E070EC3EE6444
:05D21E0080948640D160
:01D2230022E8
:084A1A008F418B428A4389445D
:104A22009007CF126E60F545F546126F3CE54624BD
:104A32006CFFE43545126ECB126F43FB3395E0FAFF
:104A4200900002EB126DBBEA126D89126E430546AD
:104A5200E546700205456408454570CEE4F545F526
:104A620046126E397472126E7B126F3C1245EAFA6C
:104A7200EAFC126E397472126E7BAA43EC12464142
:104A82000546E546700205456436454570D3C37454
:104A9200329400FE7401126EDE126E3974C0126E10
:104AA2007B126F3C12450CFD126E39126F02126DB1
:104AB200E7126D89126E1AEDF0126E3974BF126E22
:104AC2007BAB42AA4312450CFD126E39126F02FBF8
:104AD200900003126DEB126D89126E1A126ED7706E
:104AE2000205456404454570B0C374A69400FE7483
:104AF20001126EDE126E397474126E7B126F3C12EA
:104B0200450CFD126E39126F02126DE7126D891299
:104B12006E1AEDF0126E397473126E7BAB42AA43B9
:104B220012450CFD126E39126F02FB3395E0FA90BA
:104B32000003126DEF126D89126E1A126ED7700297
:104B42000545640E454570ACE4F545F54612708B9B
:104B5200C333CE33CED8F9126EF99000AA126DBAD1
:104B6200EC126D89126E1A127046C004C005C0069E
:104B7200C00712708BC333CE33CED8F9126EF990C0
:104B820000AA126DBAEC126D89126E1A127017D049
:104B920003D002D001D0001246CAC004C005C0062C
:104BA200C00712708BC333CE33CED8F9126EF99090
:104BB20000AA126DBAEC126D89126E1AD007D006D5
:104BC200D005D0041247B80546E546700205456493
:104BD2000345456003024B4F9007CF126E50F545D7
:104BE200F546E54625E0FFE54533126F3C8F82F539
:104BF200831245EA9007CF126F192546FFE5453E1D
:104C0200126E11AB41EB126DE8126D89126E1A121F
:104C12006ED470020545640D454570C6126EAC90A7
:104C22000080126D81E0FCA3E04C700990008012BC
:104C32006D81126FA0126EAC900082126D81E0FC49
:104C4200A3E04C7009900082126D81126FA0E4F50E
:104C520045F546126E39126EFA900088126DBAEC62
:104C6200126D89126E1AE0FAA3E04A701090008861
:104C7200126DBAEC126D89126E1A126FA00546E51A
:104C820046700205456405454570C8126EAC900039
:104C920084126D81E0FCA3E04C7009900084126DD7
:104CA20081126FA0126EAC900084126D81E0FCA3A1
:104CB200E04C605E9000AA126D81124780E41243BC
:104CC2001C9007CB1247B8126EAC900084126D8113
:104CD200E0FCA3E0FDE41243219007CB12478C12C3
:104CE20040F8E4FBFAF978471242019007CB1247E9
:104CF200B8E4FFFEFD7C3F9007CB12478C124007C1
:104D020012435A126F8F9000AA126DEF126D891220
:104D120047B8C374C09400FE7401126EDE126F3C79
:104D2200E5462496FFE43545126ECB126F43126DB1
:104D3200E7126D89126E430546E546700205456429
:104D420024454570D8E4F545F546126EAC9000C690
:104D5200126D81126F29126E83126EFA9000C612C2
:104D62006DBAEC126D89126F29EEF0A3EFF00546D1
:104D7200E546700205456405454570CEC374E4946A
:104D820000FE7401126EDE126F3CE54624C6FFE49B
:104D92003545126ECB126F43126DE7126D89126E9A
:104DA200430546E546700205456418454570D8122C
:104DB2006EAC9000E6126D81126E83126EFA900054
:104DC200E6126DBAEC126D89EEF0A3EFF09000ECF2
:104DD200126DBAEC126D89126E83ED3395E0FC9080
:104DE20000EC126DBAEC126D89EEF0A3EFF09000B8
:104DF200F0126DBAEC126D89126E83ED3395E0FC00
:104E02009000F0126DBAEC126D89EEF0A3EFF09003
:104E120000F2126DBAEC126D89126E83ED3395E0D9
:104E2200FC9000F2126DBAEC126D89EEF0EF126E88
:104E3200E5126E39126EFA9000F4126DBAEC126D30
:104E420089126E1AE0FCA3E0FAECFFEAFCEFFD1215
:104E52006E39126F8F9000F4126DEF126D89126E1F
:104E62001A126ED4700205456405454570C3E4F517
:104E720045F546126E39744C2FF582E4126E2A12F1
:104E82006F8F900024126DEF126D89126E1A126EDE
:104E9200D4700205456403454570D8126F3C9000FA
:104EA200DE1245EAFFAEF0126EFA90002A126DBAD7
:104EB200EC126D89EEF0A3EFF09007CF126E8D9099
:104EC200004B12450CFFE541126DB3EC126D89C027
:104ED20083C082127051D082D0832582126E469096
:104EE2000048126FA7900003126DBAEC126D89C0D0
:104EF20083C082127051D082D0832582126E469076
:104F0200004A126FA7900004126DBAEC126D89C0AC
:104F120083C082127051D082D0832582126E469055
:104F220000E3126FA7900023126DBAEC126D89EFA5
:104F3200F09007CF126E9CF545F546126E39740259
:104F42002FF58274013EF583126F3C1245EAFDACE7
:104F5200F09007CF126F212546FFE5453E126E11F4
:104F6200AB41EB126DE8126D89126E1A126ED4709B
:104F72000205456422454570C2126EAC9000411292
:104F82006D81E0FD3395E0F5458D46900040126D50
:104F920081E0FF127080126DBAEC126D89EFF09011
:104FA2000040126DBAEC126D89E546126EE612707F
:104FB20080126DBAEC126D89E0A2E713FF3395E01F
:104FC200FEC3E5469FEE6480F8E54564809850454F
:104FD200900040126DBAEC126D89E0F91270231242
:104FE2006E11900044126DBAEC126D89126E1A1293
:104FF2006F97FCEBFDE9127023126E11126F8F9006
:105002000044126DEF126D89126E1A126ED4700284
:105012000545024FB0126EAC900023126D81E0D3B1
:1050220064809480403D126F3C9001B81245EAFDC5
:10503200ACF090009A126D81ECF0A3ED126EE612C4
:105042006E3974C6126E25126F8F900088126DEF42
:10505200126D89126E1A126ED470020545640645ED
:105062004570DCE4F545F546126E3974BA126E25C8
:10507200126F8F90009C126DEF126D89126E1A12D0
:105082006ED4700205456406454570DC126EAC9024
:105092000094126D81E014FD90001F126D81126F59
:1050A200CD900097126D81E0FD90001E126D81126D
:1050B2006FCD90001E126D81E0D39400401B9000D2
:1050C2001F126D81E0C364809480500DEF3395E030
:1050D200FE90001F126D81E4F0126EAC900023125C
:1050E2006D81E0600302516C900086126D50E0D336
:1050F20094044008900019126D81E4F0126EAC9095
:1051020000C8126D81C083C082900019126D81E0C7
:10511200D082D08375F0071247F5E0703F126D79A7
:10512200E4F0F545F546126EAC9000C8126D81129E
:105132006F29E0D364809480400F900019126D8132
:10514200E546F07545007546060546E546700205DA
:1051520045C39405E5456480948040CAAF41126D11
:10516200791270599000860251A2126EAC90009A88
:10517200126D50E0D394054008900019126D81E43D
:10518200F0126EAC127061749A2FF97400126FB241
:10519200AF4112D1CEAF41126D7912705990009A7F
:0851A200126D81ECF0A3EDF0A9
:0151AA0022E2
:0A64DC008F418D428B438A448945AD
:1064E6009007CB126E50F546126F54EF25E0FFEE83
:1064F60033126FD58F82F5831245EA9007CB126F60
:1065060019FFAB46EB127092126E11AB41EB126D96
:10651600E8126D89126E1A127068E546B40DC9123A
:106526006F11900080126D81E0FCA3E04C70099021
:106536000080126D81126FA0126F11900082126D91
:1065460081E0FCA3E04C7009900082126D81126F0D
:10655600A0D3E542648094804011E542126FC39057
:106566000097126DBAEC126D89EFF0126F11900060
:1065760097126D81E0C394014014900097126D81CB
:106586007401F09007CDE4F0A37452F08007E49014
:1065960007CDF0A3F0E4F546126E0B745E126DF8AB
:1065A600745E126E7B126F6BB426EDE4F546126EC6
:1065B6000B74B0126DF874B0126E7B126F6BB4264A
:1065C600ED9007CB126E9CF546126F541270302474
:1065D60063126DC1126D89126E430546E546B444D9
:1065E600E8126F1190003E126D81126F97126FFBC9
:1065F60090003E126DBAEC126D89EEF0A3EFF090AA
:10660600003C126DBAEC126D89126F97126FFB90F7
:10661600003C126DBAEC126D89EEF0A3EFF090001B
:1066260042126DBAEC126D89126E83ED3395E0FC61
:10663600900042126DBAEC126D89EEF0A3EFF09065
:106646000040126DBAEC126D89E0D36480949E40CE
:106656000D900040126DBAEC126D89741EF0E4F5CF
:1066660046126FC5900040126DBAEC126D89E0C3F8
:106676006480F8E5466480985032126E0B900044B0
:10668600126DBAEC126D89126E1A126F97FCEBFD41
:10669600126E0BAB41EB3395E0FA900044126DEFAE
:1066A600126D89126E1A1270680266679007CB1215
:1066B6006E60F546126F541270302458126DC11276
:1066C6006D89126E430546E546B408E8126F1190CF
:1066D6000032126D81E0FD900033126D81EDF0E421
:1066E600F546126E0B744E126DF8744E126E7B12D6
:1066F6006F6BB405ED9007CB126EB4F546126F546E
:10670600744F126E7B126FD5126DCE126D89126E9A
:10671600430546E546B409E5126FD59007CEE02459
:1067260062126EC4126FC59000A3126DBAEC126DA0
:1067360089EFF0E4F546126F5474A7126E7B126F60
:10674600769000A4126DEF126D89126E430546E530
:1067560046B403E2E4F546126F5474F9126E7B12E6
:106766006F769000A7126DEF126D89126E43054683
:10677600E546B403E29007CB126E8D126FD59007F3
:10678600CEE02460126EC4E541FD126DB3EC126DCD
:1067960089C083C082127070D082D0832582126E27
:1067A600469007CEE0245F126EC4E5413395E0FCC7
:1067B600900003126DBAEC126D89C083C08212700C
:1067C60070D082D0832582126E469007CEE0246177
:1067D600126EC4E5413395E0FC900004126DBAECEC
:1067E600126D89C083C082127070D082D0832582D8
:1067F600126E46E4F546126E0B7448126DF8744834
:10680600126E7B126F6BB403EDC374229400FE7498
:106816000194019007CBF0A3CEF0E4F546126F5435
:106826007449126E7B126FD5126DCE126D89126E7F
:10683600430546E546B406E5E4F546126E0B126FCF
:10684600FE900024126DBAEC126D89126E1A126F48
:1068560097FCEBFD126E0BAB41EB3395E0FA900023
:1068660024126DEF126D89126E1A127068E5466475
:106876000370C8126F11900097126D81E0FD9000B1
:106886001E126D81126FCD90001E126D81E0D394A1
:1068960001400990001E126D817401F0126F119073
:1068A600001E126D81E0FD900094126D81E5822D2F
:1068B600F582E43583F583E0126FC390001F126DF5
:1068C600BAEC126D89EFF0900023126DBAEC126DDE
:1068D600897401F0900086126DBAEC126D89A3E0FE
:1068E60014FF900019126DBAEC126D89EFF090004A
:1068F60019126DBAEC126D89E0D39405400C900024
:1069060019126DBAEC126D89E4F0126F11127061F2
:1069160074862FF97400126FB2AF4112D1CEAF4117
:10692600126D79127059900086126D81ECF0A312E7
:106936006FCD90002A126D81E4F0A37405F09000EB
:10694600A2126D81E0D364809482400EEF3395E00D
:10695600FE9000A2126D817402F0126F119000A2D7
:10696600126D81E0C36480948150099000A2126D7B
:04697600817401F037
:01697A0022FA
:0A9962008B418A4289438C448D45F5
:10996C0090002C1245EAFF8D828C83E5F0F0A3EF7A
:10997C00F090002E1245EAFF8D828C83A3A3E5F0B4
:10998C00F0A3EF127006127046AB07AA06A905A841
:10999C0004C004C005C006C007127007127017D0AF
:1099AC0003D002D001D0001246CA1270071247B879
:1099BC0012709C9000301245EAFFE5452404126EAB
:1099CC00F1E5F0F0A3EFF090003212450CFFE54505
:1099DC002406126EF1EFF090004712450CFFE5459E
:1099EC002407126EF1EFF0E4F546F547126E701293
:1099FC00709C1245EAFAE5F0FFEAFCEFFD126E707E
:109A0C00AA42EC124641E54725E0FFE54633FEEF5E
:109A1C002408FFE43EFEE5452FF582E54412700E66
:109A2C000547E547700205466406454670BE127050
:109A3C009C9000441245EAFAE5F0FFEAFEAA429037
:109A4C000044EE124641126EEDEEF0A3EFF0126EF2
:109A5C00ED1270A37041126EED7458F0A3F07BFF01
:109A6C007ADF794EE5452408FDE43544FC12D9191A
:109A7C00E5452413126EF174201270061247C400CF
:109A8C00000000E5452404126EF1E4F0A3F0E54576
:079A9C002406126EF1E4F054
:019AA30022A0
:0AC141008F398D3A8B3B8A3C893D13
:10C14B00EF3395E0FE12706174022FF974003E75A7
:10C15B003E01F53F8940FCAD01A93D129962AF3913
:10C16B0012DBE4EF600BAB3BAA3CA93DAF39124AA3
:10C17B001AAF3912DAD8EF600DAB3BAA3CA93DAD33
:10C18B003AAF391264DC12707890001F126D81E0A7
:10C19B00FDC364809480400A900018126D81EDF00D
:10C1AB00800B127078900018126D81E4F012707889
:10C1BB0090002A126D81E0FCA3E0C39405EC94007F
:0EC1CB00500C90002A126D81E4F0A37405F070
:01C1D9002243
:04C271008F358D3642
:10C275007B007A00793512DCB0AF3512D812E4F5BF
:10C2850037F5387F1412DF1BAF3812DBC0AC06ADB3
:10C2950007E53825E0FFE53733FE74CB2FF58274CB
:10C2A5000512700E0538E53870020537C3E53764A9
:10C2B50080948140CE7B017A0579CBAD36AF3512BE
:10C2C500C141E4FF12D812AF35EF3395E0FE90007F
:10C2D50016126D811270A3601DAF35EF3395E0FE28
:10C2E500900009126D81E0C394325002800AAF3587
:0EC2F500126FDCE4F022AF35126FDC7401F042
:01C303002217
:06CFAD008F308C318D3243
:10CFB3007B007A00793012DCB0AF3012D812E4F57E
:10CFC30033F5347F1412DF1BAF3412DBC0AC06AD74
:10CFD30007E53425E0FFE53333FE74CB2FF5827488
:10CFE3000512700E0534E53470020533C39424E54D
:10CFF300336480948040CCE4FF12D8127B017A051D
:09D0030079CBAD32AC3102996227
:047697008F308D3172
:10769B007B007A00793012DCB0E5316401600302C3
:1076AB007783C3747E9400FE7401126F5C9005D1D6
:1076BB00E0FDC36480948250289005CB126F21FFAC
:1076CB00ED126D9FEC126D89126E1A126E83127091
:1076DB003D1278EC1278C67002FF22126FEC027624
:1076EB00B8AF3012DBE4EF7003027780C37486947B
:1076FB0000FE740194019005CBF0A3CEF0126FF352
:10770B00900023126D81E09005CF7007F0A37404F5
:10771B00F08006E4F0A374E3F0E49005D1F090055B
:10772B00D1E0FDC364809486504B9005CB126F2142
:10773B00FFED126D9FEC126D89126E1AE0FFA3E044
:10774B00CF12703E900023126DBAEC126D89E0706F
:10775B00099005CD126E8312703D7F1412DF1B90C2
:10776B0005CFA3E0FFA3E02F1278C67002FF221211
:10777B006FEC0277297F0122E5316402701B126FD7
:10778B00F3900084126D81126E831270AD7F021222
:10779B0078E27002FF227F0122AF3012DAD8EF605D
:1077AB0039C374849400FE7401126F5C9005D1E0B0
:1077BB00F9C36480948940030278A2126D92EC1293
:1077CB006D89126E1A126E831278A524031278D863
:1077DB007002FF22126FEC0277B7C374929400FE13
:1077EB007401126F5C9005D1E0F9C36480948350EF
:1077FB001F126D92EC126D89126E1A126E83127833
:10780B00A5240A1278D87002FF22126FEC0277F0CF
:10781B00126FF3900023126D81E060639005CB1221
:10782B006EB49005D1F09005CB126F21FF9005D16E
:10783B00E0FDFB127092126E11E530126DE7126DC6
:10784B0089126E1AE0FEA3E0FFED25E02432F8A6C4
:10785B000608A6071278ECFF25E02432F8E6FC08B0
:10786B00E6FDEF24DCFF12D87F9005D2EFF070021B
:10787B00FF22126FECE0C36480948740A98018123A
:10788B006FF3900086126D81126E831270AD7F03C1
:09789B001278E27002FF227F0165
:1078A40022E925E02432F8A60608A6077F1412DF91
:1078B4001B9005D1E0FF25E02432F8E6FC08E6FD44
:1078C400EF22FF9005CDE0FCA3E0FD12D87F9005E8
:1078D400D2EFF022FF12D87F9005D2EFF022FD12F2
:1078E400D87F9005D2EFF0227F1412DF1B9005D1D0
:0278F400E02290
:02D6B7008F3FA3
:10D6B9007B007A00793F12DCB0AF3F12DBE4EF6008
:10D6C90018AF3FEF3395E0FE90001E126D81E0D355
:10D6D90094004005900039800AAF3FEF3395E0FE92
:0BD6E900900031126D81E0F540AF4071
:01D6F4002213
:10B920004F56455200200064426D20004155544F4F
:10B9300020003F4E4F5420412050484F544F204844
:10B94000454144003F46494C5445522053455420FC
:10B95000554E415641494C41424C45003F4E4F5493
:10B96000204120544845524D4F2048454144002A2B
:10B970003220444953435245544520434F4E544985
:10B980004E554F5553002A31204449534352455494
:10B9900045003F48454144204E4F54205355505098
:10B9A0004F52544544003F42414420504152414D82
:10B9B000002A20003F4E4F5420535550504F5254B0
:09B9C0004544002A4155544F0092
:108B5B00AF3E90001FEF3395E0FE75F0FEEF12472E
:108B6B00F5EE75F0FEA42583F58322AF30EF339538
:108B7B00E0FE7C007DFE02454BE530FD3395E0FCCD
:108B8B00ED75F0FE0247F578EA7C053EFA7B017D38
:108B9B00017E007F080244ABE0FCA3E0FDE402434E
:108BAB0021AF3EEF3395E0FE90001E22EFFD339593
